{
	"contracts/single_account.sol": {
		"bank": {
			"abi": [
				{
					"constant": false,
					"inputs": [
						{
							"name": "ethers",
							"type": "uint256"
						}
					],
					"name": "withdraw",
					"outputs": [],
					"payable": true,
					"stateMutability": "payable",
					"type": "function"
				},
				{
					"constant": true,
					"inputs": [],
					"name": "getBalanceCA",
					"outputs": [
						{
							"name": "",
							"type": "uint256"
						}
					],
					"payable": false,
					"stateMutability": "view",
					"type": "function"
				},
				{
					"constant": false,
					"inputs": [
						{
							"name": "Bob",
							"type": "address"
						}
					],
					"name": "relay",
					"outputs": [],
					"payable": true,
					"stateMutability": "payable",
					"type": "function"
				},
				{
					"constant": true,
					"inputs": [],
					"name": "getBalanceEOA",
					"outputs": [
						{
							"name": "",
							"type": "uint256"
						}
					],
					"payable": false,
					"stateMutability": "view",
					"type": "function"
				},
				{
					"constant": false,
					"inputs": [],
					"name": "deposit",
					"outputs": [],
					"payable": true,
					"stateMutability": "payable",
					"type": "function"
				}
			],
			"devdoc": {
				"methods": {}
			},
			"evm": {
				"assembly": "    /* \"contracts/single_account.sol\":27:660  contract bank {\r... */\n  mstore(0x40, 0x80)\n    /* \"contracts/single_account.sol\":75:76  0 */\n  0x0\n    /* \"contracts/single_account.sol\":46:76  uint256 EtherBalance_Alice = 0 */\n  dup1\n  sstore\n    /* \"contracts/single_account.sol\":27:660  contract bank {\r... */\n  callvalue\n    /* \"--CODEGEN--\":8:17   */\n  dup1\n    /* \"--CODEGEN--\":5:7   */\n  iszero\n  tag_1\n  jumpi\n    /* \"--CODEGEN--\":30:31   */\n  0x0\n    /* \"--CODEGEN--\":27:28   */\n  dup1\n    /* \"--CODEGEN--\":20:32   */\n  revert\n    /* \"--CODEGEN--\":5:7   */\ntag_1:\n    /* \"contracts/single_account.sol\":27:660  contract bank {\r... */\n  pop\n  dataSize(sub_0)\n  dup1\n  dataOffset(sub_0)\n  0x0\n  codecopy\n  0x0\n  return\nstop\n\nsub_0: assembly {\n        /* \"contracts/single_account.sol\":27:660  contract bank {\r... */\n      mstore(0x40, 0x80)\n      jumpi(tag_1, lt(calldatasize, 0x4))\n      calldataload(0x0)\n      0x100000000000000000000000000000000000000000000000000000000\n      swap1\n      div\n      0xffffffff\n      and\n      dup1\n      0x2e1a7d4d\n      eq\n      tag_2\n      jumpi\n      dup1\n      0x2f9febd3\n      eq\n      tag_3\n      jumpi\n      dup1\n      0x73b6656f\n      eq\n      tag_4\n      jumpi\n      dup1\n      0xa84c1d07\n      eq\n      tag_5\n      jumpi\n      dup1\n      0xd0e30db0\n      eq\n      tag_6\n      jumpi\n    tag_1:\n      0x0\n      dup1\n      revert\n        /* \"contracts/single_account.sol\":183:349  function withdraw(uint256 ethers) public payable {\r... */\n    tag_2:\n      tag_7\n      0x4\n      dup1\n      calldatasize\n      sub\n      dup2\n      add\n      swap1\n      dup1\n      dup1\n      calldataload\n      swap1\n      0x20\n      add\n      swap1\n      swap3\n      swap2\n      swap1\n      pop\n      pop\n      pop\n      jump(tag_8)\n    tag_7:\n      stop\n        /* \"contracts/single_account.sol\":437:531  function getBalanceCA() public constant returns(uint256){\r... */\n    tag_3:\n      callvalue\n        /* \"--CODEGEN--\":8:17   */\n      dup1\n        /* \"--CODEGEN--\":5:7   */\n      iszero\n      tag_9\n      jumpi\n        /* \"--CODEGEN--\":30:31   */\n      0x0\n        /* \"--CODEGEN--\":27:28   */\n      dup1\n        /* \"--CODEGEN--\":20:32   */\n      revert\n        /* \"--CODEGEN--\":5:7   */\n    tag_9:\n        /* \"contracts/single_account.sol\":437:531  function getBalanceCA() public constant returns(uint256){\r... */\n      pop\n      tag_10\n      jump(tag_11)\n    tag_10:\n      mload(0x40)\n      dup1\n      dup3\n      dup2\n      mstore\n      0x20\n      add\n      swap2\n      pop\n      pop\n      mload(0x40)\n      dup1\n      swap2\n      sub\n      swap1\n      return\n        /* \"contracts/single_account.sol\":353:433  function relay(address Bob) public payable {\r... */\n    tag_4:\n      tag_12\n      0x4\n      dup1\n      calldatasize\n      sub\n      dup2\n      add\n      swap1\n      dup1\n      dup1\n      calldataload\n      0xffffffffffffffffffffffffffffffffffffffff\n      and\n      swap1\n      0x20\n      add\n      swap1\n      swap3\n      swap2\n      swap1\n      pop\n      pop\n      pop\n      jump(tag_13)\n    tag_12:\n      stop\n        /* \"contracts/single_account.sol\":535:659  function getBalanceEOA() public view returns(uint256) {\r... */\n    tag_5:\n      callvalue\n        /* \"--CODEGEN--\":8:17   */\n      dup1\n        /* \"--CODEGEN--\":5:7   */\n      iszero\n      tag_14\n      jumpi\n        /* \"--CODEGEN--\":30:31   */\n      0x0\n        /* \"--CODEGEN--\":27:28   */\n      dup1\n        /* \"--CODEGEN--\":20:32   */\n      revert\n        /* \"--CODEGEN--\":5:7   */\n    tag_14:\n        /* \"contracts/single_account.sol\":535:659  function getBalanceEOA() public view returns(uint256) {\r... */\n      pop\n      tag_15\n      jump(tag_16)\n    tag_15:\n      mload(0x40)\n      dup1\n      dup3\n      dup2\n      mstore\n      0x20\n      add\n      swap2\n      pop\n      pop\n      mload(0x40)\n      dup1\n      swap2\n      sub\n      swap1\n      return\n        /* \"contracts/single_account.sol\":81:179  function deposit() public payable {\r... */\n    tag_6:\n      tag_17\n      jump(tag_18)\n    tag_17:\n      stop\n        /* \"contracts/single_account.sol\":183:349  function withdraw(uint256 ethers) public payable {\r... */\n    tag_8:\n        /* \"contracts/single_account.sol\":239:249  msg.sender */\n      caller\n        /* \"contracts/single_account.sol\":239:258  msg.sender.transfer */\n      0xffffffffffffffffffffffffffffffffffffffff\n      and\n        /* \"contracts/single_account.sol\":239:288  msg.sender.transfer(ethers * 1000000000000000000) */\n      0x8fc\n        /* \"contracts/single_account.sol\":268:287  1000000000000000000 */\n      0xde0b6b3a7640000\n        /* \"contracts/single_account.sol\":259:265  ethers */\n      dup4\n        /* \"contracts/single_account.sol\":259:287  ethers * 1000000000000000000 */\n      mul\n        /* \"contracts/single_account.sol\":239:288  msg.sender.transfer(ethers * 1000000000000000000) */\n      swap1\n      dup2\n      iszero\n      mul\n      swap1\n      mload(0x40)\n      0x0\n      mload(0x40)\n      dup1\n      dup4\n      sub\n      dup2\n      dup6\n      dup9\n      dup9\n      call\n      swap4\n      pop\n      pop\n      pop\n      pop\n      iszero\n        /* \"--CODEGEN--\":8:17   */\n      dup1\n        /* \"--CODEGEN--\":5:7   */\n      iszero\n      tag_20\n      jumpi\n        /* \"--CODEGEN--\":45:61   */\n      returndatasize\n        /* \"--CODEGEN--\":42:43   */\n      0x0\n        /* \"--CODEGEN--\":39:40   */\n      dup1\n        /* \"--CODEGEN--\":24:62   */\n      returndatacopy\n        /* \"--CODEGEN--\":77:93   */\n      returndatasize\n        /* \"--CODEGEN--\":74:75   */\n      0x0\n        /* \"--CODEGEN--\":67:94   */\n      revert\n        /* \"--CODEGEN--\":5:7   */\n    tag_20:\n        /* \"contracts/single_account.sol\":239:288  msg.sender.transfer(ethers * 1000000000000000000) */\n      pop\n        /* \"contracts/single_account.sol\":337:343  ethers */\n      dup1\n        /* \"contracts/single_account.sol\":316:334  EtherBalance_Alice */\n      sload(0x0)\n        /* \"contracts/single_account.sol\":316:343  EtherBalance_Alice - ethers */\n      sub\n        /* \"contracts/single_account.sol\":295:313  EtherBalance_Alice */\n      0x0\n        /* \"contracts/single_account.sol\":295:343  EtherBalance_Alice = EtherBalance_Alice - ethers */\n      dup2\n      swap1\n      sstore\n      pop\n        /* \"contracts/single_account.sol\":183:349  function withdraw(uint256 ethers) public payable {\r... */\n      pop\n      jump\t// out\n        /* \"contracts/single_account.sol\":437:531  function getBalanceCA() public constant returns(uint256){\r... */\n    tag_11:\n        /* \"contracts/single_account.sol\":485:492  uint256 */\n      0x0\n        /* \"contracts/single_account.sol\":507:525  EtherBalance_Alice */\n      dup1\n      sload\n        /* \"contracts/single_account.sol\":500:525  return EtherBalance_Alice */\n      swap1\n      pop\n        /* \"contracts/single_account.sol\":437:531  function getBalanceCA() public constant returns(uint256){\r... */\n      swap1\n      jump\t// out\n        /* \"contracts/single_account.sol\":353:433  function relay(address Bob) public payable {\r... */\n    tag_13:\n        /* \"contracts/single_account.sol\":404:407  Bob */\n      dup1\n        /* \"contracts/single_account.sol\":404:416  Bob.transfer */\n      0xffffffffffffffffffffffffffffffffffffffff\n      and\n        /* \"contracts/single_account.sol\":404:427  Bob.transfer(msg.value) */\n      0x8fc\n        /* \"contracts/single_account.sol\":417:426  msg.value */\n      callvalue\n        /* \"contracts/single_account.sol\":404:427  Bob.transfer(msg.value) */\n      swap1\n      dup2\n      iszero\n      mul\n      swap1\n      mload(0x40)\n      0x0\n      mload(0x40)\n      dup1\n      dup4\n      sub\n      dup2\n      dup6\n      dup9\n      dup9\n      call\n      swap4\n      pop\n      pop\n      pop\n      pop\n      iszero\n        /* \"--CODEGEN--\":8:17   */\n      dup1\n        /* \"--CODEGEN--\":5:7   */\n      iszero\n      tag_23\n      jumpi\n        /* \"--CODEGEN--\":45:61   */\n      returndatasize\n        /* \"--CODEGEN--\":42:43   */\n      0x0\n        /* \"--CODEGEN--\":39:40   */\n      dup1\n        /* \"--CODEGEN--\":24:62   */\n      returndatacopy\n        /* \"--CODEGEN--\":77:93   */\n      returndatasize\n        /* \"--CODEGEN--\":74:75   */\n      0x0\n        /* \"--CODEGEN--\":67:94   */\n      revert\n        /* \"--CODEGEN--\":5:7   */\n    tag_23:\n        /* \"contracts/single_account.sol\":404:427  Bob.transfer(msg.value) */\n      pop\n        /* \"contracts/single_account.sol\":353:433  function relay(address Bob) public payable {\r... */\n      pop\n      jump\t// out\n        /* \"contracts/single_account.sol\":535:659  function getBalanceEOA() public view returns(uint256) {\r... */\n    tag_16:\n        /* \"contracts/single_account.sol\":580:587  uint256 */\n      0x0\n        /* \"contracts/single_account.sol\":603:645  0x0000000000000000000000000000000000000000 */\n      dup1\n        /* \"contracts/single_account.sol\":603:653  0x0000000000000000000000000000000000000000.balance */\n      0xffffffffffffffffffffffffffffffffffffffff\n      and\n      balance\n        /* \"contracts/single_account.sol\":596:653  return 0x0000000000000000000000000000000000000000.balance */\n      swap1\n      pop\n        /* \"contracts/single_account.sol\":535:659  function getBalanceEOA() public view returns(uint256) {\r... */\n      swap1\n      jump\t// out\n        /* \"contracts/single_account.sol\":81:179  function deposit() public payable {\r... */\n    tag_18:\n        /* \"contracts/single_account.sol\":164:173  msg.value */\n      callvalue\n        /* \"contracts/single_account.sol\":143:161  EtherBalance_Alice */\n      sload(0x0)\n        /* \"contracts/single_account.sol\":143:173  EtherBalance_Alice + msg.value */\n      add\n        /* \"contracts/single_account.sol\":122:140  EtherBalance_Alice */\n      0x0\n        /* \"contracts/single_account.sol\":122:173  EtherBalance_Alice = EtherBalance_Alice + msg.value */\n      dup2\n      swap1\n      sstore\n      pop\n        /* \"contracts/single_account.sol\":81:179  function deposit() public payable {\r... */\n      jump\t// out\n\n    auxdata: 0xa165627a7a7230582043e91b4d1aa889e4c07a866a2144ca511695ae79a75b521d58d8acbca9bb6a980029\n}\n",
				"bytecode": {
					"linkReferences": {},
					"object": "60806040526000805534801561001457600080fd5b50610232806100246000396000f30060806040526004361061006d576000357c0100000000000000000000000000000000000000000000000000000000900463ffffffff1680632e1a7d4d146100725780632f9febd31461009257806373b6656f146100bd578063a84c1d07146100f3578063d0e30db01461011e575b600080fd5b61009060048036038101908080359060200190929190505050610128565b005b34801561009e57600080fd5b506100a7610187565b6040518082815260200191505060405180910390f35b6100f1600480360381019080803573ffffffffffffffffffffffffffffffffffffffff169060200190929190505050610190565b005b3480156100ff57600080fd5b506101086101da565b6040518082815260200191505060405180910390f35b6101266101f9565b005b3373ffffffffffffffffffffffffffffffffffffffff166108fc670de0b6b3a764000083029081150290604051600060405180830381858888f19350505050158015610178573d6000803e3d6000fd5b50806000540360008190555050565b60008054905090565b8073ffffffffffffffffffffffffffffffffffffffff166108fc349081150290604051600060405180830381858888f193505050501580156101d6573d6000803e3d6000fd5b5050565b60008073ffffffffffffffffffffffffffffffffffffffff1631905090565b34600054016000819055505600a165627a7a7230582043e91b4d1aa889e4c07a866a2144ca511695ae79a75b521d58d8acbca9bb6a980029",
					"opcodes": "PUSH1 0x80 PUSH1 0x40 MSTORE PUSH1 0x0 DUP1 SSTORE CALLVALUE DUP1 ISZERO PUSH2 0x14 JUMPI PUSH1 0x0 DUP1 REVERT JUMPDEST POP PUSH2 0x232 DUP1 PUSH2 0x24 PUSH1 0x0 CODECOPY PUSH1 0x0 RETURN STOP PUSH1 0x80 PUSH1 0x40 MSTORE PUSH1 0x4 CALLDATASIZE LT PUSH2 0x6D JUMPI PUSH1 0x0 CALLDATALOAD PUSH29 0x100000000000000000000000000000000000000000000000000000000 SWAP1 DIV PUSH4 0xFFFFFFFF AND DUP1 PUSH4 0x2E1A7D4D EQ PUSH2 0x72 JUMPI DUP1 PUSH4 0x2F9FEBD3 EQ PUSH2 0x92 JUMPI DUP1 PUSH4 0x73B6656F EQ PUSH2 0xBD JUMPI DUP1 PUSH4 0xA84C1D07 EQ PUSH2 0xF3 JUMPI DUP1 PUSH4 0xD0E30DB0 EQ PUSH2 0x11E JUMPI JUMPDEST PUSH1 0x0 DUP1 REVERT JUMPDEST PUSH2 0x90 PUSH1 0x4 DUP1 CALLDATASIZE SUB DUP2 ADD SWAP1 DUP1 DUP1 CALLDATALOAD SWAP1 PUSH1 0x20 ADD SWAP1 SWAP3 SWAP2 SWAP1 POP POP POP PUSH2 0x128 JUMP JUMPDEST STOP JUMPDEST CALLVALUE DUP1 ISZERO PUSH2 0x9E JUMPI PUSH1 0x0 DUP1 REVERT JUMPDEST POP PUSH2 0xA7 PUSH2 0x187 JUMP JUMPDEST PUSH1 0x40 MLOAD DUP1 DUP3 DUP2 MSTORE PUSH1 0x20 ADD SWAP2 POP POP PUSH1 0x40 MLOAD DUP1 SWAP2 SUB SWAP1 RETURN JUMPDEST PUSH2 0xF1 PUSH1 0x4 DUP1 CALLDATASIZE SUB DUP2 ADD SWAP1 DUP1 DUP1 CALLDATALOAD PUSH20 0xFFFFFFFFFFFFFFFFFFFFFFFFFFFFFFFFFFFFFFFF AND SWAP1 PUSH1 0x20 ADD SWAP1 SWAP3 SWAP2 SWAP1 POP POP POP PUSH2 0x190 JUMP JUMPDEST STOP JUMPDEST CALLVALUE DUP1 ISZERO PUSH2 0xFF JUMPI PUSH1 0x0 DUP1 REVERT JUMPDEST POP PUSH2 0x108 PUSH2 0x1DA JUMP JUMPDEST PUSH1 0x40 MLOAD DUP1 DUP3 DUP2 MSTORE PUSH1 0x20 ADD SWAP2 POP POP PUSH1 0x40 MLOAD DUP1 SWAP2 SUB SWAP1 RETURN JUMPDEST PUSH2 0x126 PUSH2 0x1F9 JUMP JUMPDEST STOP JUMPDEST CALLER PUSH20 0xFFFFFFFFFFFFFFFFFFFFFFFFFFFFFFFFFFFFFFFF AND PUSH2 0x8FC PUSH8 0xDE0B6B3A7640000 DUP4 MUL SWAP1 DUP2 ISZERO MUL SWAP1 PUSH1 0x40 MLOAD PUSH1 0x0 PUSH1 0x40 MLOAD DUP1 DUP4 SUB DUP2 DUP6 DUP9 DUP9 CALL SWAP4 POP POP POP POP ISZERO DUP1 ISZERO PUSH2 0x178 JUMPI RETURNDATASIZE PUSH1 0x0 DUP1 RETURNDATACOPY RETURNDATASIZE PUSH1 0x0 REVERT JUMPDEST POP DUP1 PUSH1 0x0 SLOAD SUB PUSH1 0x0 DUP2 SWAP1 SSTORE POP POP JUMP JUMPDEST PUSH1 0x0 DUP1 SLOAD SWAP1 POP SWAP1 JUMP JUMPDEST DUP1 PUSH20 0xFFFFFFFFFFFFFFFFFFFFFFFFFFFFFFFFFFFFFFFF AND PUSH2 0x8FC CALLVALUE SWAP1 DUP2 ISZERO MUL SWAP1 PUSH1 0x40 MLOAD PUSH1 0x0 PUSH1 0x40 MLOAD DUP1 DUP4 SUB DUP2 DUP6 DUP9 DUP9 CALL SWAP4 POP POP POP POP ISZERO DUP1 ISZERO PUSH2 0x1D6 JUMPI RETURNDATASIZE PUSH1 0x0 DUP1 RETURNDATACOPY RETURNDATASIZE PUSH1 0x0 REVERT JUMPDEST POP POP JUMP JUMPDEST PUSH1 0x0 DUP1 PUSH20 0xFFFFFFFFFFFFFFFFFFFFFFFFFFFFFFFFFFFFFFFF AND BALANCE SWAP1 POP SWAP1 JUMP JUMPDEST CALLVALUE PUSH1 0x0 SLOAD ADD PUSH1 0x0 DUP2 SWAP1 SSTORE POP JUMP STOP LOG1 PUSH6 0x627A7A723058 KECCAK256 NUMBER 0xe9 SHL 0x4d BYTE 0xa8 DUP10 0xe4 0xc0 PUSH27 0x866A2144CA511695AE79A75B521D58D8ACBCA9BB6A980029000000 "
				},
				"gasEstimates": {
					"creation": {
						"codeDepositCost": "112400",
						"executionCost": "5165",
						"totalCost": "117565"
					},
					"external": {
						"deposit()": "20416",
						"getBalanceCA()": "424",
						"getBalanceEOA()": "674",
						"relay(address)": "infinite",
						"withdraw(uint256)": "infinite"
					}
				},
				"methodIdentifiers": {
					"deposit()": "d0e30db0",
					"getBalanceCA()": "2f9febd3",
					"getBalanceEOA()": "a84c1d07",
					"relay(address)": "73b6656f",
					"withdraw(uint256)": "2e1a7d4d"
				}
			},
			"userdoc": {
				"methods": {}
			}
		}
	}
}