{
	"contracts/bankSafe_double.sol": {
		"Bank": {
			"abi": [
				{
					"inputs": [
						{
							"internalType": "address",
							"name": "other",
							"type": "address"
						},
						{
							"internalType": "uint256",
							"name": "amnt",
							"type": "uint256"
						}
					],
					"name": "addAllowance",
					"outputs": [],
					"stateMutability": "nonpayable",
					"type": "function"
				},
				{
					"inputs": [],
					"name": "deposit",
					"outputs": [],
					"stateMutability": "payable",
					"type": "function"
				},
				{
					"inputs": [
						{
							"internalType": "address",
							"name": "from",
							"type": "address"
						},
						{
							"internalType": "uint256",
							"name": "amnt",
							"type": "uint256"
						}
					],
					"name": "transferFrom",
					"outputs": [],
					"stateMutability": "nonpayable",
					"type": "function"
				},
				{
					"inputs": [],
					"name": "withdrawBalance",
					"outputs": [],
					"stateMutability": "nonpayable",
					"type": "function"
				},
				{
					"stateMutability": "payable",
					"type": "receive"
				}
			],
			"devdoc": {
				"kind": "dev",
				"methods": {},
				"version": 1
			},
			"evm": {
				"assembly": "    /* \"contracts/bankSafe_double.sol\":61:1871  contract Bank {... */\n  mstore(0x40, 0x80)\n  callvalue\n  dup1\n  iszero\n  tag_1\n  jumpi\n  0x00\n  dup1\n  revert\ntag_1:\n  pop\n  dataSize(sub_0)\n  dup1\n  dataOffset(sub_0)\n  0x00\n  codecopy\n  0x00\n  return\nstop\n\nsub_0: assembly {\n        /* \"contracts/bankSafe_double.sol\":61:1871  contract Bank {... */\n      mstore(0x40, 0x80)\n      jumpi(tag_1, lt(calldatasize, 0x04))\n      shr(0xe0, calldataload(0x00))\n      dup1\n      0x01c6adc3\n      eq\n      tag_3\n      jumpi\n      dup1\n      0x5fd8c710\n      eq\n      tag_4\n      jumpi\n      dup1\n      0xd0e30db0\n      eq\n      tag_5\n      jumpi\n      dup1\n      0xf3c40c4b\n      eq\n      tag_6\n      jumpi\n      jump(tag_2)\n    tag_1:\n      jumpi(tag_2, calldatasize)\n        /* \"contracts/bankSafe_double.sol\":1851:1860  msg.value */\n      callvalue\n        /* \"contracts/bankSafe_double.sol\":1828:1835  balance */\n      0x00\n        /* \"contracts/bankSafe_double.sol\":1828:1847  balance[msg.sender] */\n      dup1\n        /* \"contracts/bankSafe_double.sol\":1836:1846  msg.sender */\n      caller\n        /* \"contracts/bankSafe_double.sol\":1828:1847  balance[msg.sender] */\n      0xffffffffffffffffffffffffffffffffffffffff\n      and\n      0xffffffffffffffffffffffffffffffffffffffff\n      and\n      dup2\n      mstore\n      0x20\n      add\n      swap1\n      dup2\n      mstore\n      0x20\n      add\n      0x00\n      keccak256\n      0x00\n        /* \"contracts/bankSafe_double.sol\":1828:1860  balance[msg.sender] += msg.value */\n      dup3\n      dup3\n      sload\n      tag_9\n      swap2\n      swap1\n      tag_10\n      jump\t// in\n    tag_9:\n      swap3\n      pop\n      pop\n      dup2\n      swap1\n      sstore\n      stop\n        /* \"contracts/bankSafe_double.sol\":61:1871  contract Bank {... */\n    tag_2:\n      0x00\n      dup1\n      revert\n        /* \"contracts/bankSafe_double.sol\":842:1127  function transferFrom(address from,uint256 amnt) withdrawAllowed public {... */\n    tag_3:\n      callvalue\n      dup1\n      iszero\n      tag_11\n      jumpi\n      0x00\n      dup1\n      revert\n    tag_11:\n      pop\n      tag_12\n      0x04\n      dup1\n      calldatasize\n      sub\n      dup2\n      add\n      swap1\n      tag_13\n      swap2\n      swap1\n      tag_14\n      jump\t// in\n    tag_13:\n      tag_15\n      jump\t// in\n    tag_12:\n      stop\n        /* \"contracts/bankSafe_double.sol\":1135:1605  function withdrawBalance() withdrawAllowed public {... */\n    tag_4:\n      callvalue\n      dup1\n      iszero\n      tag_16\n      jumpi\n      0x00\n      dup1\n      revert\n    tag_16:\n      pop\n      tag_17\n      tag_18\n      jump\t// in\n    tag_17:\n      stop\n        /* \"contracts/bankSafe_double.sol\":1657:1741  function deposit() public payable{... */\n    tag_5:\n      tag_19\n      tag_20\n      jump\t// in\n    tag_19:\n      stop\n        /* \"contracts/bankSafe_double.sol\":592:834  function addAllowance(address other, uint256 amnt) public { ... */\n    tag_6:\n      callvalue\n      dup1\n      iszero\n      tag_21\n      jumpi\n      0x00\n      dup1\n      revert\n    tag_21:\n      pop\n      tag_22\n      0x04\n      dup1\n      calldatasize\n      sub\n      dup2\n      add\n      swap1\n      tag_23\n      swap2\n      swap1\n      tag_14\n      jump\t// in\n    tag_23:\n      tag_24\n      jump\t// in\n    tag_22:\n      stop\n        /* \"contracts/bankSafe_double.sol\":842:1127  function transferFrom(address from,uint256 amnt) withdrawAllowed public {... */\n    tag_15:\n        /* \"contracts/bankSafe_double.sol\":326:331  false */\n      0x00\n        /* \"contracts/bankSafe_double.sol\":295:331  disableWithdraw[msg.sender] == false */\n      iszero\n      iszero\n        /* \"contracts/bankSafe_double.sol\":295:310  disableWithdraw */\n      0x01\n        /* \"contracts/bankSafe_double.sol\":295:322  disableWithdraw[msg.sender] */\n      0x00\n        /* \"contracts/bankSafe_double.sol\":311:321  msg.sender */\n      caller\n        /* \"contracts/bankSafe_double.sol\":295:322  disableWithdraw[msg.sender] */\n      0xffffffffffffffffffffffffffffffffffffffff\n      and\n      0xffffffffffffffffffffffffffffffffffffffff\n      and\n      dup2\n      mstore\n      0x20\n      add\n      swap1\n      dup2\n      mstore\n      0x20\n      add\n      0x00\n      keccak256\n      0x00\n      swap1\n      sload\n      swap1\n      0x0100\n      exp\n      swap1\n      div\n      0xff\n      and\n        /* \"contracts/bankSafe_double.sol\":295:331  disableWithdraw[msg.sender] == false */\n      iszero\n      iszero\n      eq\n        /* \"contracts/bankSafe_double.sol\":287:332  require(disableWithdraw[msg.sender] == false) */\n      tag_26\n      jumpi\n      0x00\n      dup1\n      revert\n    tag_26:\n        /* \"contracts/bankSafe_double.sol\":950:954  amnt */\n      dup1\n        /* \"contracts/bankSafe_double.sol\":933:940  balance */\n      0x00\n        /* \"contracts/bankSafe_double.sol\":933:946  balance[from] */\n      dup1\n        /* \"contracts/bankSafe_double.sol\":941:945  from */\n      dup5\n        /* \"contracts/bankSafe_double.sol\":933:946  balance[from] */\n      0xffffffffffffffffffffffffffffffffffffffff\n      and\n      0xffffffffffffffffffffffffffffffffffffffff\n      and\n      dup2\n      mstore\n      0x20\n      add\n      swap1\n      dup2\n      mstore\n      0x20\n      add\n      0x00\n      keccak256\n      sload\n        /* \"contracts/bankSafe_double.sol\":933:954  balance[from] >= amnt */\n      lt\n      iszero\n        /* \"contracts/bankSafe_double.sol\":925:955  require(balance[from] >= amnt) */\n      tag_28\n      jumpi\n      0x00\n      dup1\n      revert\n    tag_28:\n        /* \"contracts/bankSafe_double.sol\":1001:1005  amnt */\n      dup1\n        /* \"contracts/bankSafe_double.sol\":974:979  allow */\n      0x02\n        /* \"contracts/bankSafe_double.sol\":974:985  allow[from] */\n      0x00\n        /* \"contracts/bankSafe_double.sol\":980:984  from */\n      dup5\n        /* \"contracts/bankSafe_double.sol\":974:985  allow[from] */\n      0xffffffffffffffffffffffffffffffffffffffff\n      and\n      0xffffffffffffffffffffffffffffffffffffffff\n      and\n      dup2\n      mstore\n      0x20\n      add\n      swap1\n      dup2\n      mstore\n      0x20\n      add\n      0x00\n      keccak256\n        /* \"contracts/bankSafe_double.sol\":974:997  allow[from][msg.sender] */\n      0x00\n        /* \"contracts/bankSafe_double.sol\":986:996  msg.sender */\n      caller\n        /* \"contracts/bankSafe_double.sol\":974:997  allow[from][msg.sender] */\n      0xffffffffffffffffffffffffffffffffffffffff\n      and\n      0xffffffffffffffffffffffffffffffffffffffff\n      and\n      dup2\n      mstore\n      0x20\n      add\n      swap1\n      dup2\n      mstore\n      0x20\n      add\n      0x00\n      keccak256\n      sload\n        /* \"contracts/bankSafe_double.sol\":974:1005  allow[from][msg.sender] >= amnt */\n      lt\n      iszero\n        /* \"contracts/bankSafe_double.sol\":966:1006  require(allow[from][msg.sender] >= amnt) */\n      tag_29\n      jumpi\n      0x00\n      dup1\n      revert\n    tag_29:\n        /* \"contracts/bankSafe_double.sol\":1034:1038  amnt */\n      dup1\n        /* \"contracts/bankSafe_double.sol\":1017:1024  balance */\n      0x00\n        /* \"contracts/bankSafe_double.sol\":1017:1030  balance[from] */\n      dup1\n        /* \"contracts/bankSafe_double.sol\":1025:1029  from */\n      dup5\n        /* \"contracts/bankSafe_double.sol\":1017:1030  balance[from] */\n      0xffffffffffffffffffffffffffffffffffffffff\n      and\n      0xffffffffffffffffffffffffffffffffffffffff\n      and\n      dup2\n      mstore\n      0x20\n      add\n      swap1\n      dup2\n      mstore\n      0x20\n      add\n      0x00\n      keccak256\n      0x00\n        /* \"contracts/bankSafe_double.sol\":1017:1038  balance[from] -= amnt */\n      dup3\n      dup3\n      sload\n      tag_30\n      swap2\n      swap1\n      tag_31\n      jump\t// in\n    tag_30:\n      swap3\n      pop\n      pop\n      dup2\n      swap1\n      sstore\n      pop\n        /* \"contracts/bankSafe_double.sol\":1076:1080  amnt */\n      dup1\n        /* \"contracts/bankSafe_double.sol\":1049:1054  allow */\n      0x02\n        /* \"contracts/bankSafe_double.sol\":1049:1060  allow[from] */\n      0x00\n        /* \"contracts/bankSafe_double.sol\":1055:1059  from */\n      dup5\n        /* \"contracts/bankSafe_double.sol\":1049:1060  allow[from] */\n      0xffffffffffffffffffffffffffffffffffffffff\n      and\n      0xffffffffffffffffffffffffffffffffffffffff\n      and\n      dup2\n      mstore\n      0x20\n      add\n      swap1\n      dup2\n      mstore\n      0x20\n      add\n      0x00\n      keccak256\n        /* \"contracts/bankSafe_double.sol\":1049:1072  allow[from][msg.sender] */\n      0x00\n        /* \"contracts/bankSafe_double.sol\":1061:1071  msg.sender */\n      caller\n        /* \"contracts/bankSafe_double.sol\":1049:1072  allow[from][msg.sender] */\n      0xffffffffffffffffffffffffffffffffffffffff\n      and\n      0xffffffffffffffffffffffffffffffffffffffff\n      and\n      dup2\n      mstore\n      0x20\n      add\n      swap1\n      dup2\n      mstore\n      0x20\n      add\n      0x00\n      keccak256\n      0x00\n        /* \"contracts/bankSafe_double.sol\":1049:1080  allow[from][msg.sender] -= amnt */\n      dup3\n      dup3\n      sload\n      tag_32\n      swap2\n      swap1\n      tag_31\n      jump\t// in\n    tag_32:\n      swap3\n      pop\n      pop\n      dup2\n      swap1\n      sstore\n      pop\n        /* \"contracts/bankSafe_double.sol\":1114:1118  amnt */\n      dup1\n        /* \"contracts/bankSafe_double.sol\":1091:1098  balance */\n      0x00\n        /* \"contracts/bankSafe_double.sol\":1091:1110  balance[msg.sender] */\n      dup1\n        /* \"contracts/bankSafe_double.sol\":1099:1109  msg.sender */\n      caller\n        /* \"contracts/bankSafe_double.sol\":1091:1110  balance[msg.sender] */\n      0xffffffffffffffffffffffffffffffffffffffff\n      and\n      0xffffffffffffffffffffffffffffffffffffffff\n      and\n      dup2\n      mstore\n      0x20\n      add\n      swap1\n      dup2\n      mstore\n      0x20\n      add\n      0x00\n      keccak256\n      0x00\n        /* \"contracts/bankSafe_double.sol\":1091:1118  balance[msg.sender] += amnt */\n      dup3\n      dup3\n      sload\n      tag_33\n      swap2\n      swap1\n      tag_10\n      jump\t// in\n    tag_33:\n      swap3\n      pop\n      pop\n      dup2\n      swap1\n      sstore\n      pop\n        /* \"contracts/bankSafe_double.sol\":842:1127  function transferFrom(address from,uint256 amnt) withdrawAllowed public {... */\n      pop\n      pop\n      jump\t// out\n        /* \"contracts/bankSafe_double.sol\":1135:1605  function withdrawBalance() withdrawAllowed public {... */\n    tag_18:\n        /* \"contracts/bankSafe_double.sol\":326:331  false */\n      0x00\n        /* \"contracts/bankSafe_double.sol\":295:331  disableWithdraw[msg.sender] == false */\n      iszero\n      iszero\n        /* \"contracts/bankSafe_double.sol\":295:310  disableWithdraw */\n      0x01\n        /* \"contracts/bankSafe_double.sol\":295:322  disableWithdraw[msg.sender] */\n      0x00\n        /* \"contracts/bankSafe_double.sol\":311:321  msg.sender */\n      caller\n        /* \"contracts/bankSafe_double.sol\":295:322  disableWithdraw[msg.sender] */\n      0xffffffffffffffffffffffffffffffffffffffff\n      and\n      0xffffffffffffffffffffffffffffffffffffffff\n      and\n      dup2\n      mstore\n      0x20\n      add\n      swap1\n      dup2\n      mstore\n      0x20\n      add\n      0x00\n      keccak256\n      0x00\n      swap1\n      sload\n      swap1\n      0x0100\n      exp\n      swap1\n      div\n      0xff\n      and\n        /* \"contracts/bankSafe_double.sol\":295:331  disableWithdraw[msg.sender] == false */\n      iszero\n      iszero\n      eq\n        /* \"contracts/bankSafe_double.sol\":287:332  require(disableWithdraw[msg.sender] == false) */\n      tag_35\n      jumpi\n      0x00\n      dup1\n      revert\n    tag_35:\n        /* \"contracts/bankSafe_double.sol\":1379:1383  true */\n      0x01\n        /* \"contracts/bankSafe_double.sol\":1349:1364  disableWithdraw */\n      dup1\n        /* \"contracts/bankSafe_double.sol\":1349:1376  disableWithdraw[msg.sender] */\n      0x00\n        /* \"contracts/bankSafe_double.sol\":1365:1375  msg.sender */\n      caller\n        /* \"contracts/bankSafe_double.sol\":1349:1376  disableWithdraw[msg.sender] */\n      0xffffffffffffffffffffffffffffffffffffffff\n      and\n      0xffffffffffffffffffffffffffffffffffffffff\n      and\n      dup2\n      mstore\n      0x20\n      add\n      swap1\n      dup2\n      mstore\n      0x20\n      add\n      0x00\n      keccak256\n      0x00\n        /* \"contracts/bankSafe_double.sol\":1349:1383  disableWithdraw[msg.sender] = true */\n      0x0100\n      exp\n      dup2\n      sload\n      dup2\n      0xff\n      mul\n      not\n      and\n      swap1\n      dup4\n      iszero\n      iszero\n      mul\n      or\n      swap1\n      sstore\n      pop\n        /* \"contracts/bankSafe_double.sol\":1436:1446  msg.sender */\n      caller\n        /* \"contracts/bankSafe_double.sol\":1436:1451  msg.sender.call */\n      0xffffffffffffffffffffffffffffffffffffffff\n      and\n        /* \"contracts/bankSafe_double.sol\":1459:1466  balance */\n      0x00\n        /* \"contracts/bankSafe_double.sol\":1459:1478  balance[msg.sender] */\n      dup1\n        /* \"contracts/bankSafe_double.sol\":1467:1477  msg.sender */\n      caller\n        /* \"contracts/bankSafe_double.sol\":1459:1478  balance[msg.sender] */\n      0xffffffffffffffffffffffffffffffffffffffff\n      and\n      0xffffffffffffffffffffffffffffffffffffffff\n      and\n      dup2\n      mstore\n      0x20\n      add\n      swap1\n      dup2\n      mstore\n      0x20\n      add\n      0x00\n      keccak256\n      sload\n        /* \"contracts/bankSafe_double.sol\":1436:1491  msg.sender.call{value: balance[msg.sender]/*temp*/}(\"\") */\n      mload(0x40)\n      tag_37\n      swap1\n      tag_38\n      jump\t// in\n    tag_37:\n      0x00\n      mload(0x40)\n      dup1\n      dup4\n      sub\n      dup2\n      dup6\n      dup8\n      gas\n      call\n      swap3\n      pop\n      pop\n      pop\n      returndatasize\n      dup1\n      0x00\n      dup2\n      eq\n      tag_41\n      jumpi\n      mload(0x40)\n      swap2\n      pop\n      and(add(returndatasize, 0x3f), not(0x1f))\n      dup3\n      add\n      0x40\n      mstore\n      returndatasize\n      dup3\n      mstore\n      returndatasize\n      0x00\n      0x20\n      dup5\n      add\n      returndatacopy\n      jump(tag_40)\n    tag_41:\n      0x60\n      swap2\n      pop\n    tag_40:\n      pop\n      pop\n      pop\n        /* \"contracts/bankSafe_double.sol\":1557:1562  false */\n      0x00\n        /* \"contracts/bankSafe_double.sol\":1527:1542  disableWithdraw */\n      0x01\n        /* \"contracts/bankSafe_double.sol\":1527:1554  disableWithdraw[msg.sender] */\n      0x00\n        /* \"contracts/bankSafe_double.sol\":1543:1553  msg.sender */\n      caller\n        /* \"contracts/bankSafe_double.sol\":1527:1554  disableWithdraw[msg.sender] */\n      0xffffffffffffffffffffffffffffffffffffffff\n      and\n      0xffffffffffffffffffffffffffffffffffffffff\n      and\n      dup2\n      mstore\n      0x20\n      add\n      swap1\n      dup2\n      mstore\n      0x20\n      add\n      0x00\n      keccak256\n      0x00\n        /* \"contracts/bankSafe_double.sol\":1527:1562  disableWithdraw[msg.sender] = false */\n      0x0100\n      exp\n      dup2\n      sload\n      dup2\n      0xff\n      mul\n      not\n      and\n      swap1\n      dup4\n      iszero\n      iszero\n      mul\n      or\n      swap1\n      sstore\n      pop\n        /* \"contracts/bankSafe_double.sol\":1595:1596  0 */\n      0x00\n        /* \"contracts/bankSafe_double.sol\":1573:1580  balance */\n      dup1\n        /* \"contracts/bankSafe_double.sol\":1573:1592  balance[msg.sender] */\n      0x00\n        /* \"contracts/bankSafe_double.sol\":1581:1591  msg.sender */\n      caller\n        /* \"contracts/bankSafe_double.sol\":1573:1592  balance[msg.sender] */\n      0xffffffffffffffffffffffffffffffffffffffff\n      and\n      0xffffffffffffffffffffffffffffffffffffffff\n      and\n      dup2\n      mstore\n      0x20\n      add\n      swap1\n      dup2\n      mstore\n      0x20\n      add\n      0x00\n      keccak256\n        /* \"contracts/bankSafe_double.sol\":1573:1596  balance[msg.sender] = 0 */\n      dup2\n      swap1\n      sstore\n      pop\n        /* \"contracts/bankSafe_double.sol\":1135:1605  function withdrawBalance() withdrawAllowed public {... */\n      jump\t// out\n        /* \"contracts/bankSafe_double.sol\":1657:1741  function deposit() public payable{... */\n    tag_20:\n        /* \"contracts/bankSafe_double.sol\":1724:1733  msg.value */\n      callvalue\n        /* \"contracts/bankSafe_double.sol\":1701:1708  balance */\n      0x00\n        /* \"contracts/bankSafe_double.sol\":1701:1720  balance[msg.sender] */\n      dup1\n        /* \"contracts/bankSafe_double.sol\":1709:1719  msg.sender */\n      caller\n        /* \"contracts/bankSafe_double.sol\":1701:1720  balance[msg.sender] */\n      0xffffffffffffffffffffffffffffffffffffffff\n      and\n      0xffffffffffffffffffffffffffffffffffffffff\n      and\n      dup2\n      mstore\n      0x20\n      add\n      swap1\n      dup2\n      mstore\n      0x20\n      add\n      0x00\n      keccak256\n      0x00\n        /* \"contracts/bankSafe_double.sol\":1701:1733  balance[msg.sender] += msg.value */\n      dup3\n      dup3\n      sload\n      tag_43\n      swap2\n      swap1\n      tag_10\n      jump\t// in\n    tag_43:\n      swap3\n      pop\n      pop\n      dup2\n      swap1\n      sstore\n      pop\n        /* \"contracts/bankSafe_double.sol\":1657:1741  function deposit() public payable{... */\n      jump\t// out\n        /* \"contracts/bankSafe_double.sol\":592:834  function addAllowance(address other, uint256 amnt) public { ... */\n    tag_24:\n        /* \"contracts/bankSafe_double.sol\":690:694  amnt */\n      dup1\n        /* \"contracts/bankSafe_double.sol\":662:667  allow */\n      0x02\n        /* \"contracts/bankSafe_double.sol\":662:679  allow[msg.sender] */\n      0x00\n        /* \"contracts/bankSafe_double.sol\":668:678  msg.sender */\n      caller\n        /* \"contracts/bankSafe_double.sol\":662:679  allow[msg.sender] */\n      0xffffffffffffffffffffffffffffffffffffffff\n      and\n      0xffffffffffffffffffffffffffffffffffffffff\n      and\n      dup2\n      mstore\n      0x20\n      add\n      swap1\n      dup2\n      mstore\n      0x20\n      add\n      0x00\n      keccak256\n        /* \"contracts/bankSafe_double.sol\":662:686  allow[msg.sender][other] */\n      0x00\n        /* \"contracts/bankSafe_double.sol\":680:685  other */\n      dup5\n        /* \"contracts/bankSafe_double.sol\":662:686  allow[msg.sender][other] */\n      0xffffffffffffffffffffffffffffffffffffffff\n      and\n      0xffffffffffffffffffffffffffffffffffffffff\n      and\n      dup2\n      mstore\n      0x20\n      add\n      swap1\n      dup2\n      mstore\n      0x20\n      add\n      0x00\n      keccak256\n      0x00\n        /* \"contracts/bankSafe_double.sol\":662:694  allow[msg.sender][other] += amnt */\n      dup3\n      dup3\n      sload\n      tag_45\n      swap2\n      swap1\n      tag_10\n      jump\t// in\n    tag_45:\n      swap3\n      pop\n      pop\n      dup2\n      swap1\n      sstore\n      pop\n        /* \"contracts/bankSafe_double.sol\":592:834  function addAllowance(address other, uint256 amnt) public { ... */\n      pop\n      pop\n      jump\t// out\n        /* \"#utility.yul\":7:84   */\n    tag_46:\n        /* \"#utility.yul\":44:51   */\n      0x00\n        /* \"#utility.yul\":73:78   */\n      dup2\n        /* \"#utility.yul\":62:78   */\n      swap1\n      pop\n        /* \"#utility.yul\":7:84   */\n      swap2\n      swap1\n      pop\n      jump\t// out\n        /* \"#utility.yul\":90:270   */\n    tag_47:\n        /* \"#utility.yul\":138:215   */\n      0x4e487b7100000000000000000000000000000000000000000000000000000000\n        /* \"#utility.yul\":135:136   */\n      0x00\n        /* \"#utility.yul\":128:216   */\n      mstore\n        /* \"#utility.yul\":235:239   */\n      0x11\n        /* \"#utility.yul\":232:233   */\n      0x04\n        /* \"#utility.yul\":225:240   */\n      mstore\n        /* \"#utility.yul\":259:263   */\n      0x24\n        /* \"#utility.yul\":256:257   */\n      0x00\n        /* \"#utility.yul\":249:264   */\n      revert\n        /* \"#utility.yul\":276:467   */\n    tag_10:\n        /* \"#utility.yul\":316:319   */\n      0x00\n        /* \"#utility.yul\":335:355   */\n      tag_64\n        /* \"#utility.yul\":353:354   */\n      dup3\n        /* \"#utility.yul\":335:355   */\n      tag_46\n      jump\t// in\n    tag_64:\n        /* \"#utility.yul\":330:355   */\n      swap2\n      pop\n        /* \"#utility.yul\":369:389   */\n      tag_65\n        /* \"#utility.yul\":387:388   */\n      dup4\n        /* \"#utility.yul\":369:389   */\n      tag_46\n      jump\t// in\n    tag_65:\n        /* \"#utility.yul\":364:389   */\n      swap3\n      pop\n        /* \"#utility.yul\":412:413   */\n      dup3\n        /* \"#utility.yul\":409:410   */\n      dup3\n        /* \"#utility.yul\":405:414   */\n      add\n        /* \"#utility.yul\":398:414   */\n      swap1\n      pop\n        /* \"#utility.yul\":433:436   */\n      dup1\n        /* \"#utility.yul\":430:431   */\n      dup3\n        /* \"#utility.yul\":427:437   */\n      gt\n        /* \"#utility.yul\":424:460   */\n      iszero\n      tag_66\n      jumpi\n        /* \"#utility.yul\":440:458   */\n      tag_67\n      tag_47\n      jump\t// in\n    tag_67:\n        /* \"#utility.yul\":424:460   */\n    tag_66:\n        /* \"#utility.yul\":276:467   */\n      swap3\n      swap2\n      pop\n      pop\n      jump\t// out\n        /* \"#utility.yul\":554:671   */\n    tag_49:\n        /* \"#utility.yul\":663:664   */\n      0x00\n        /* \"#utility.yul\":660:661   */\n      dup1\n        /* \"#utility.yul\":653:665   */\n      revert\n        /* \"#utility.yul\":800:926   */\n    tag_51:\n        /* \"#utility.yul\":837:844   */\n      0x00\n        /* \"#utility.yul\":877:919   */\n      0xffffffffffffffffffffffffffffffffffffffff\n        /* \"#utility.yul\":870:875   */\n      dup3\n        /* \"#utility.yul\":866:920   */\n      and\n        /* \"#utility.yul\":855:920   */\n      swap1\n      pop\n        /* \"#utility.yul\":800:926   */\n      swap2\n      swap1\n      pop\n      jump\t// out\n        /* \"#utility.yul\":932:1028   */\n    tag_52:\n        /* \"#utility.yul\":969:976   */\n      0x00\n        /* \"#utility.yul\":998:1022   */\n      tag_73\n        /* \"#utility.yul\":1016:1021   */\n      dup3\n        /* \"#utility.yul\":998:1022   */\n      tag_51\n      jump\t// in\n    tag_73:\n        /* \"#utility.yul\":987:1022   */\n      swap1\n      pop\n        /* \"#utility.yul\":932:1028   */\n      swap2\n      swap1\n      pop\n      jump\t// out\n        /* \"#utility.yul\":1034:1156   */\n    tag_53:\n        /* \"#utility.yul\":1107:1131   */\n      tag_75\n        /* \"#utility.yul\":1125:1130   */\n      dup2\n        /* \"#utility.yul\":1107:1131   */\n      tag_52\n      jump\t// in\n    tag_75:\n        /* \"#utility.yul\":1100:1105   */\n      dup2\n        /* \"#utility.yul\":1097:1132   */\n      eq\n        /* \"#utility.yul\":1087:1150   */\n      tag_76\n      jumpi\n        /* \"#utility.yul\":1146:1147   */\n      0x00\n        /* \"#utility.yul\":1143:1144   */\n      dup1\n        /* \"#utility.yul\":1136:1148   */\n      revert\n        /* \"#utility.yul\":1087:1150   */\n    tag_76:\n        /* \"#utility.yul\":1034:1156   */\n      pop\n      jump\t// out\n        /* \"#utility.yul\":1162:1301   */\n    tag_54:\n        /* \"#utility.yul\":1208:1213   */\n      0x00\n        /* \"#utility.yul\":1246:1252   */\n      dup2\n        /* \"#utility.yul\":1233:1253   */\n      calldataload\n        /* \"#utility.yul\":1224:1253   */\n      swap1\n      pop\n        /* \"#utility.yul\":1262:1295   */\n      tag_78\n        /* \"#utility.yul\":1289:1294   */\n      dup2\n        /* \"#utility.yul\":1262:1295   */\n      tag_53\n      jump\t// in\n    tag_78:\n        /* \"#utility.yul\":1162:1301   */\n      swap3\n      swap2\n      pop\n      pop\n      jump\t// out\n        /* \"#utility.yul\":1307:1429   */\n    tag_55:\n        /* \"#utility.yul\":1380:1404   */\n      tag_80\n        /* \"#utility.yul\":1398:1403   */\n      dup2\n        /* \"#utility.yul\":1380:1404   */\n      tag_46\n      jump\t// in\n    tag_80:\n        /* \"#utility.yul\":1373:1378   */\n      dup2\n        /* \"#utility.yul\":1370:1405   */\n      eq\n        /* \"#utility.yul\":1360:1423   */\n      tag_81\n      jumpi\n        /* \"#utility.yul\":1419:1420   */\n      0x00\n        /* \"#utility.yul\":1416:1417   */\n      dup1\n        /* \"#utility.yul\":1409:1421   */\n      revert\n        /* \"#utility.yul\":1360:1423   */\n    tag_81:\n        /* \"#utility.yul\":1307:1429   */\n      pop\n      jump\t// out\n        /* \"#utility.yul\":1435:1574   */\n    tag_56:\n        /* \"#utility.yul\":1481:1486   */\n      0x00\n        /* \"#utility.yul\":1519:1525   */\n      dup2\n        /* \"#utility.yul\":1506:1526   */\n      calldataload\n        /* \"#utility.yul\":1497:1526   */\n      swap1\n      pop\n        /* \"#utility.yul\":1535:1568   */\n      tag_83\n        /* \"#utility.yul\":1562:1567   */\n      dup2\n        /* \"#utility.yul\":1535:1568   */\n      tag_55\n      jump\t// in\n    tag_83:\n        /* \"#utility.yul\":1435:1574   */\n      swap3\n      swap2\n      pop\n      pop\n      jump\t// out\n        /* \"#utility.yul\":1580:2054   */\n    tag_14:\n        /* \"#utility.yul\":1648:1654   */\n      0x00\n        /* \"#utility.yul\":1656:1662   */\n      dup1\n        /* \"#utility.yul\":1705:1707   */\n      0x40\n        /* \"#utility.yul\":1693:1702   */\n      dup4\n        /* \"#utility.yul\":1684:1691   */\n      dup6\n        /* \"#utility.yul\":1680:1703   */\n      sub\n        /* \"#utility.yul\":1676:1708   */\n      slt\n        /* \"#utility.yul\":1673:1792   */\n      iszero\n      tag_85\n      jumpi\n        /* \"#utility.yul\":1711:1790   */\n      tag_86\n      tag_49\n      jump\t// in\n    tag_86:\n        /* \"#utility.yul\":1673:1792   */\n    tag_85:\n        /* \"#utility.yul\":1831:1832   */\n      0x00\n        /* \"#utility.yul\":1856:1909   */\n      tag_87\n        /* \"#utility.yul\":1901:1908   */\n      dup6\n        /* \"#utility.yul\":1892:1898   */\n      dup3\n        /* \"#utility.yul\":1881:1890   */\n      dup7\n        /* \"#utility.yul\":1877:1899   */\n      add\n        /* \"#utility.yul\":1856:1909   */\n      tag_54\n      jump\t// in\n    tag_87:\n        /* \"#utility.yul\":1846:1909   */\n      swap3\n      pop\n        /* \"#utility.yul\":1802:1919   */\n      pop\n        /* \"#utility.yul\":1958:1960   */\n      0x20\n        /* \"#utility.yul\":1984:2037   */\n      tag_88\n        /* \"#utility.yul\":2029:2036   */\n      dup6\n        /* \"#utility.yul\":2020:2026   */\n      dup3\n        /* \"#utility.yul\":2009:2018   */\n      dup7\n        /* \"#utility.yul\":2005:2027   */\n      add\n        /* \"#utility.yul\":1984:2037   */\n      tag_56\n      jump\t// in\n    tag_88:\n        /* \"#utility.yul\":1974:2037   */\n      swap2\n      pop\n        /* \"#utility.yul\":1929:2047   */\n      pop\n        /* \"#utility.yul\":1580:2054   */\n      swap3\n      pop\n      swap3\n      swap1\n      pop\n      jump\t// out\n        /* \"#utility.yul\":2060:2254   */\n    tag_31:\n        /* \"#utility.yul\":2100:2104   */\n      0x00\n        /* \"#utility.yul\":2120:2140   */\n      tag_90\n        /* \"#utility.yul\":2138:2139   */\n      dup3\n        /* \"#utility.yul\":2120:2140   */\n      tag_46\n      jump\t// in\n    tag_90:\n        /* \"#utility.yul\":2115:2140   */\n      swap2\n      pop\n        /* \"#utility.yul\":2154:2174   */\n      tag_91\n        /* \"#utility.yul\":2172:2173   */\n      dup4\n        /* \"#utility.yul\":2154:2174   */\n      tag_46\n      jump\t// in\n    tag_91:\n        /* \"#utility.yul\":2149:2174   */\n      swap3\n      pop\n        /* \"#utility.yul\":2198:2199   */\n      dup3\n        /* \"#utility.yul\":2195:2196   */\n      dup3\n        /* \"#utility.yul\":2191:2200   */\n      sub\n        /* \"#utility.yul\":2183:2200   */\n      swap1\n      pop\n        /* \"#utility.yul\":2222:2223   */\n      dup2\n        /* \"#utility.yul\":2216:2220   */\n      dup2\n        /* \"#utility.yul\":2213:2224   */\n      gt\n        /* \"#utility.yul\":2210:2247   */\n      iszero\n      tag_92\n      jumpi\n        /* \"#utility.yul\":2227:2245   */\n      tag_93\n      tag_47\n      jump\t// in\n    tag_93:\n        /* \"#utility.yul\":2210:2247   */\n    tag_92:\n        /* \"#utility.yul\":2060:2254   */\n      swap3\n      swap2\n      pop\n      pop\n      jump\t// out\n        /* \"#utility.yul\":2260:2407   */\n    tag_57:\n        /* \"#utility.yul\":2361:2372   */\n      0x00\n        /* \"#utility.yul\":2398:2401   */\n      dup2\n        /* \"#utility.yul\":2383:2401   */\n      swap1\n      pop\n        /* \"#utility.yul\":2260:2407   */\n      swap3\n      swap2\n      pop\n      pop\n      jump\t// out\n        /* \"#utility.yul\":2413:2527   */\n    tag_58:\n      pop\n      jump\t// out\n        /* \"#utility.yul\":2533:2931   */\n    tag_59:\n        /* \"#utility.yul\":2692:2695   */\n      0x00\n        /* \"#utility.yul\":2713:2796   */\n      tag_97\n        /* \"#utility.yul\":2794:2795   */\n      0x00\n        /* \"#utility.yul\":2789:2792   */\n      dup4\n        /* \"#utility.yul\":2713:2796   */\n      tag_57\n      jump\t// in\n    tag_97:\n        /* \"#utility.yul\":2706:2796   */\n      swap2\n      pop\n        /* \"#utility.yul\":2805:2898   */\n      tag_98\n        /* \"#utility.yul\":2894:2897   */\n      dup3\n        /* \"#utility.yul\":2805:2898   */\n      tag_58\n      jump\t// in\n    tag_98:\n        /* \"#utility.yul\":2923:2924   */\n      0x00\n        /* \"#utility.yul\":2918:2921   */\n      dup3\n        /* \"#utility.yul\":2914:2925   */\n      add\n        /* \"#utility.yul\":2907:2925   */\n      swap1\n      pop\n        /* \"#utility.yul\":2533:2931   */\n      swap2\n      swap1\n      pop\n      jump\t// out\n        /* \"#utility.yul\":2937:3316   */\n    tag_38:\n        /* \"#utility.yul\":3121:3124   */\n      0x00\n        /* \"#utility.yul\":3143:3290   */\n      tag_100\n        /* \"#utility.yul\":3286:3289   */\n      dup3\n        /* \"#utility.yul\":3143:3290   */\n      tag_59\n      jump\t// in\n    tag_100:\n        /* \"#utility.yul\":3136:3290   */\n      swap2\n      pop\n        /* \"#utility.yul\":3307:3310   */\n      dup2\n        /* \"#utility.yul\":3300:3310   */\n      swap1\n      pop\n        /* \"#utility.yul\":2937:3316   */\n      swap2\n      swap1\n      pop\n      jump\t// out\n\n    auxdata: 0xa2646970667358221220ed067f9a6bec2808aab944dcb1504435fc808b700c3b2c943a12394e6480767564736f6c63430008120033\n}\n",
				"bytecode": {
					"linkReferences": {},
					"object": "608060405234801561001057600080fd5b5061085b806100206000396000f3fe6080604052600436106100435760003560e01c806301c6adc3146100a35780635fd8c710146100cc578063d0e30db0146100e3578063f3c40c4b146100ed5761009e565b3661009e57346000803373ffffffffffffffffffffffffffffffffffffffff1673ffffffffffffffffffffffffffffffffffffffff168152602001908152602001600020600082825461009691906106a8565b925050819055005b600080fd5b3480156100af57600080fd5b506100ca60048036038101906100c5919061076b565b610116565b005b3480156100d857600080fd5b506100e1610388565b005b6100eb610581565b005b3480156100f957600080fd5b50610114600480360381019061010f919061076b565b6105d8565b005b60001515600160003373ffffffffffffffffffffffffffffffffffffffff1673ffffffffffffffffffffffffffffffffffffffff16815260200190815260200160002060009054906101000a900460ff1615151461017357600080fd5b806000808473ffffffffffffffffffffffffffffffffffffffff1673ffffffffffffffffffffffffffffffffffffffff1681526020019081526020016000205410156101be57600080fd5b80600260008473ffffffffffffffffffffffffffffffffffffffff1673ffffffffffffffffffffffffffffffffffffffff16815260200190815260200160002060003373ffffffffffffffffffffffffffffffffffffffff1673ffffffffffffffffffffffffffffffffffffffff16815260200190815260200160002054101561024757600080fd5b806000808473ffffffffffffffffffffffffffffffffffffffff1673ffffffffffffffffffffffffffffffffffffffff168152602001908152602001600020600082825461029591906107ab565b9250508190555080600260008473ffffffffffffffffffffffffffffffffffffffff1673ffffffffffffffffffffffffffffffffffffffff16815260200190815260200160002060003373ffffffffffffffffffffffffffffffffffffffff1673ffffffffffffffffffffffffffffffffffffffff168152602001908152602001600020600082825461032891906107ab565b92505081905550806000803373ffffffffffffffffffffffffffffffffffffffff1673ffffffffffffffffffffffffffffffffffffffff168152602001908152602001600020600082825461037d91906106a8565b925050819055505050565b60001515600160003373ffffffffffffffffffffffffffffffffffffffff1673ffffffffffffffffffffffffffffffffffffffff16815260200190815260200160002060009054906101000a900460ff161515146103e557600080fd5b60018060003373ffffffffffffffffffffffffffffffffffffffff1673ffffffffffffffffffffffffffffffffffffffff16815260200190815260200160002060006101000a81548160ff0219169083151502179055503373ffffffffffffffffffffffffffffffffffffffff166000803373ffffffffffffffffffffffffffffffffffffffff1673ffffffffffffffffffffffffffffffffffffffff1681526020019081526020016000205460405161049e90610810565b60006040518083038185875af1925050503d80600081146104db576040519150601f19603f3d011682016040523d82523d6000602084013e6104e0565b606091505b5050506000600160003373ffffffffffffffffffffffffffffffffffffffff1673ffffffffffffffffffffffffffffffffffffffff16815260200190815260200160002060006101000a81548160ff02191690831515021790555060008060003373ffffffffffffffffffffffffffffffffffffffff1673ffffffffffffffffffffffffffffffffffffffff16815260200190815260200160002081905550565b346000803373ffffffffffffffffffffffffffffffffffffffff1673ffffffffffffffffffffffffffffffffffffffff16815260200190815260200160002060008282546105cf91906106a8565b92505081905550565b80600260003373ffffffffffffffffffffffffffffffffffffffff1673ffffffffffffffffffffffffffffffffffffffff16815260200190815260200160002060008473ffffffffffffffffffffffffffffffffffffffff1673ffffffffffffffffffffffffffffffffffffffff168152602001908152602001600020600082825461066491906106a8565b925050819055505050565b6000819050919050565b7f4e487b7100000000000000000000000000000000000000000000000000000000600052601160045260246000fd5b60006106b38261066f565b91506106be8361066f565b92508282019050808211156106d6576106d5610679565b5b92915050565b600080fd5b600073ffffffffffffffffffffffffffffffffffffffff82169050919050565b600061070c826106e1565b9050919050565b61071c81610701565b811461072757600080fd5b50565b60008135905061073981610713565b92915050565b6107488161066f565b811461075357600080fd5b50565b6000813590506107658161073f565b92915050565b60008060408385031215610782576107816106dc565b5b60006107908582860161072a565b92505060206107a185828601610756565b9150509250929050565b60006107b68261066f565b91506107c18361066f565b92508282039050818111156107d9576107d8610679565b5b92915050565b600081905092915050565b50565b60006107fa6000836107df565b9150610805826107ea565b600082019050919050565b600061081b826107ed565b915081905091905056fea2646970667358221220ed067f9a6bec2808aab944dcb1504435fc808b700c3b2c943a12394e6480767564736f6c63430008120033",
					"opcodes": "PUSH1 0x80 PUSH1 0x40 MSTORE CALLVALUE DUP1 ISZERO PUSH2 0x10 JUMPI PUSH1 0x0 DUP1 REVERT JUMPDEST POP PUSH2 0x85B DUP1 PUSH2 0x20 PUSH1 0x0 CODECOPY PUSH1 0x0 RETURN INVALID PUSH1 0x80 PUSH1 0x40 MSTORE PUSH1 0x4 CALLDATASIZE LT PUSH2 0x43 JUMPI PUSH1 0x0 CALLDATALOAD PUSH1 0xE0 SHR DUP1 PUSH4 0x1C6ADC3 EQ PUSH2 0xA3 JUMPI DUP1 PUSH4 0x5FD8C710 EQ PUSH2 0xCC JUMPI DUP1 PUSH4 0xD0E30DB0 EQ PUSH2 0xE3 JUMPI DUP1 PUSH4 0xF3C40C4B EQ PUSH2 0xED JUMPI PUSH2 0x9E JUMP JUMPDEST CALLDATASIZE PUSH2 0x9E JUMPI CALLVALUE PUSH1 0x0 DUP1 CALLER PUSH20 0xFFFFFFFFFFFFFFFFFFFFFFFFFFFFFFFFFFFFFFFF AND PUSH20 0xFFFFFFFFFFFFFFFFFFFFFFFFFFFFFFFFFFFFFFFF AND DUP2 MSTORE PUSH1 0x20 ADD SWAP1 DUP2 MSTORE PUSH1 0x20 ADD PUSH1 0x0 KECCAK256 PUSH1 0x0 DUP3 DUP3 SLOAD PUSH2 0x96 SWAP2 SWAP1 PUSH2 0x6A8 JUMP JUMPDEST SWAP3 POP POP DUP2 SWAP1 SSTORE STOP JUMPDEST PUSH1 0x0 DUP1 REVERT JUMPDEST CALLVALUE DUP1 ISZERO PUSH2 0xAF JUMPI PUSH1 0x0 DUP1 REVERT JUMPDEST POP PUSH2 0xCA PUSH1 0x4 DUP1 CALLDATASIZE SUB DUP2 ADD SWAP1 PUSH2 0xC5 SWAP2 SWAP1 PUSH2 0x76B JUMP JUMPDEST PUSH2 0x116 JUMP JUMPDEST STOP JUMPDEST CALLVALUE DUP1 ISZERO PUSH2 0xD8 JUMPI PUSH1 0x0 DUP1 REVERT JUMPDEST POP PUSH2 0xE1 PUSH2 0x388 JUMP JUMPDEST STOP JUMPDEST PUSH2 0xEB PUSH2 0x581 JUMP JUMPDEST STOP JUMPDEST CALLVALUE DUP1 ISZERO PUSH2 0xF9 JUMPI PUSH1 0x0 DUP1 REVERT JUMPDEST POP PUSH2 0x114 PUSH1 0x4 DUP1 CALLDATASIZE SUB DUP2 ADD SWAP1 PUSH2 0x10F SWAP2 SWAP1 PUSH2 0x76B JUMP JUMPDEST PUSH2 0x5D8 JUMP JUMPDEST STOP JUMPDEST PUSH1 0x0 ISZERO ISZERO PUSH1 0x1 PUSH1 0x0 CALLER PUSH20 0xFFFFFFFFFFFFFFFFFFFFFFFFFFFFFFFFFFFFFFFF AND PUSH20 0xFFFFFFFFFFFFFFFFFFFFFFFFFFFFFFFFFFFFFFFF AND DUP2 MSTORE PUSH1 0x20 ADD SWAP1 DUP2 MSTORE PUSH1 0x20 ADD PUSH1 0x0 KECCAK256 PUSH1 0x0 SWAP1 SLOAD SWAP1 PUSH2 0x100 EXP SWAP1 DIV PUSH1 0xFF AND ISZERO ISZERO EQ PUSH2 0x173 JUMPI PUSH1 0x0 DUP1 REVERT JUMPDEST DUP1 PUSH1 0x0 DUP1 DUP5 PUSH20 0xFFFFFFFFFFFFFFFFFFFFFFFFFFFFFFFFFFFFFFFF AND PUSH20 0xFFFFFFFFFFFFFFFFFFFFFFFFFFFFFFFFFFFFFFFF AND DUP2 MSTORE PUSH1 0x20 ADD SWAP1 DUP2 MSTORE PUSH1 0x20 ADD PUSH1 0x0 KECCAK256 SLOAD LT ISZERO PUSH2 0x1BE JUMPI PUSH1 0x0 DUP1 REVERT JUMPDEST DUP1 PUSH1 0x2 PUSH1 0x0 DUP5 PUSH20 0xFFFFFFFFFFFFFFFFFFFFFFFFFFFFFFFFFFFFFFFF AND PUSH20 0xFFFFFFFFFFFFFFFFFFFFFFFFFFFFFFFFFFFFFFFF AND DUP2 MSTORE PUSH1 0x20 ADD SWAP1 DUP2 MSTORE PUSH1 0x20 ADD PUSH1 0x0 KECCAK256 PUSH1 0x0 CALLER PUSH20 0xFFFFFFFFFFFFFFFFFFFFFFFFFFFFFFFFFFFFFFFF AND PUSH20 0xFFFFFFFFFFFFFFFFFFFFFFFFFFFFFFFFFFFFFFFF AND DUP2 MSTORE PUSH1 0x20 ADD SWAP1 DUP2 MSTORE PUSH1 0x20 ADD PUSH1 0x0 KECCAK256 SLOAD LT ISZERO PUSH2 0x247 JUMPI PUSH1 0x0 DUP1 REVERT JUMPDEST DUP1 PUSH1 0x0 DUP1 DUP5 PUSH20 0xFFFFFFFFFFFFFFFFFFFFFFFFFFFFFFFFFFFFFFFF AND PUSH20 0xFFFFFFFFFFFFFFFFFFFFFFFFFFFFFFFFFFFFFFFF AND DUP2 MSTORE PUSH1 0x20 ADD SWAP1 DUP2 MSTORE PUSH1 0x20 ADD PUSH1 0x0 KECCAK256 PUSH1 0x0 DUP3 DUP3 SLOAD PUSH2 0x295 SWAP2 SWAP1 PUSH2 0x7AB JUMP JUMPDEST SWAP3 POP POP DUP2 SWAP1 SSTORE POP DUP1 PUSH1 0x2 PUSH1 0x0 DUP5 PUSH20 0xFFFFFFFFFFFFFFFFFFFFFFFFFFFFFFFFFFFFFFFF AND PUSH20 0xFFFFFFFFFFFFFFFFFFFFFFFFFFFFFFFFFFFFFFFF AND DUP2 MSTORE PUSH1 0x20 ADD SWAP1 DUP2 MSTORE PUSH1 0x20 ADD PUSH1 0x0 KECCAK256 PUSH1 0x0 CALLER PUSH20 0xFFFFFFFFFFFFFFFFFFFFFFFFFFFFFFFFFFFFFFFF AND PUSH20 0xFFFFFFFFFFFFFFFFFFFFFFFFFFFFFFFFFFFFFFFF AND DUP2 MSTORE PUSH1 0x20 ADD SWAP1 DUP2 MSTORE PUSH1 0x20 ADD PUSH1 0x0 KECCAK256 PUSH1 0x0 DUP3 DUP3 SLOAD PUSH2 0x328 SWAP2 SWAP1 PUSH2 0x7AB JUMP JUMPDEST SWAP3 POP POP DUP2 SWAP1 SSTORE POP DUP1 PUSH1 0x0 DUP1 CALLER PUSH20 0xFFFFFFFFFFFFFFFFFFFFFFFFFFFFFFFFFFFFFFFF AND PUSH20 0xFFFFFFFFFFFFFFFFFFFFFFFFFFFFFFFFFFFFFFFF AND DUP2 MSTORE PUSH1 0x20 ADD SWAP1 DUP2 MSTORE PUSH1 0x20 ADD PUSH1 0x0 KECCAK256 PUSH1 0x0 DUP3 DUP3 SLOAD PUSH2 0x37D SWAP2 SWAP1 PUSH2 0x6A8 JUMP JUMPDEST SWAP3 POP POP DUP2 SWAP1 SSTORE POP POP POP JUMP JUMPDEST PUSH1 0x0 ISZERO ISZERO PUSH1 0x1 PUSH1 0x0 CALLER PUSH20 0xFFFFFFFFFFFFFFFFFFFFFFFFFFFFFFFFFFFFFFFF AND PUSH20 0xFFFFFFFFFFFFFFFFFFFFFFFFFFFFFFFFFFFFFFFF AND DUP2 MSTORE PUSH1 0x20 ADD SWAP1 DUP2 MSTORE PUSH1 0x20 ADD PUSH1 0x0 KECCAK256 PUSH1 0x0 SWAP1 SLOAD SWAP1 PUSH2 0x100 EXP SWAP1 DIV PUSH1 0xFF AND ISZERO ISZERO EQ PUSH2 0x3E5 JUMPI PUSH1 0x0 DUP1 REVERT JUMPDEST PUSH1 0x1 DUP1 PUSH1 0x0 CALLER PUSH20 0xFFFFFFFFFFFFFFFFFFFFFFFFFFFFFFFFFFFFFFFF AND PUSH20 0xFFFFFFFFFFFFFFFFFFFFFFFFFFFFFFFFFFFFFFFF AND DUP2 MSTORE PUSH1 0x20 ADD SWAP1 DUP2 MSTORE PUSH1 0x20 ADD PUSH1 0x0 KECCAK256 PUSH1 0x0 PUSH2 0x100 EXP DUP2 SLOAD DUP2 PUSH1 0xFF MUL NOT AND SWAP1 DUP4 ISZERO ISZERO MUL OR SWAP1 SSTORE POP CALLER PUSH20 0xFFFFFFFFFFFFFFFFFFFFFFFFFFFFFFFFFFFFFFFF AND PUSH1 0x0 DUP1 CALLER PUSH20 0xFFFFFFFFFFFFFFFFFFFFFFFFFFFFFFFFFFFFFFFF AND PUSH20 0xFFFFFFFFFFFFFFFFFFFFFFFFFFFFFFFFFFFFFFFF AND DUP2 MSTORE PUSH1 0x20 ADD SWAP1 DUP2 MSTORE PUSH1 0x20 ADD PUSH1 0x0 KECCAK256 SLOAD PUSH1 0x40 MLOAD PUSH2 0x49E SWAP1 PUSH2 0x810 JUMP JUMPDEST PUSH1 0x0 PUSH1 0x40 MLOAD DUP1 DUP4 SUB DUP2 DUP6 DUP8 GAS CALL SWAP3 POP POP POP RETURNDATASIZE DUP1 PUSH1 0x0 DUP2 EQ PUSH2 0x4DB JUMPI PUSH1 0x40 MLOAD SWAP2 POP PUSH1 0x1F NOT PUSH1 0x3F RETURNDATASIZE ADD AND DUP3 ADD PUSH1 0x40 MSTORE RETURNDATASIZE DUP3 MSTORE RETURNDATASIZE PUSH1 0x0 PUSH1 0x20 DUP5 ADD RETURNDATACOPY PUSH2 0x4E0 JUMP JUMPDEST PUSH1 0x60 SWAP2 POP JUMPDEST POP POP POP PUSH1 0x0 PUSH1 0x1 PUSH1 0x0 CALLER PUSH20 0xFFFFFFFFFFFFFFFFFFFFFFFFFFFFFFFFFFFFFFFF AND PUSH20 0xFFFFFFFFFFFFFFFFFFFFFFFFFFFFFFFFFFFFFFFF AND DUP2 MSTORE PUSH1 0x20 ADD SWAP1 DUP2 MSTORE PUSH1 0x20 ADD PUSH1 0x0 KECCAK256 PUSH1 0x0 PUSH2 0x100 EXP DUP2 SLOAD DUP2 PUSH1 0xFF MUL NOT AND SWAP1 DUP4 ISZERO ISZERO MUL OR SWAP1 SSTORE POP PUSH1 0x0 DUP1 PUSH1 0x0 CALLER PUSH20 0xFFFFFFFFFFFFFFFFFFFFFFFFFFFFFFFFFFFFFFFF AND PUSH20 0xFFFFFFFFFFFFFFFFFFFFFFFFFFFFFFFFFFFFFFFF AND DUP2 MSTORE PUSH1 0x20 ADD SWAP1 DUP2 MSTORE PUSH1 0x20 ADD PUSH1 0x0 KECCAK256 DUP2 SWAP1 SSTORE POP JUMP JUMPDEST CALLVALUE PUSH1 0x0 DUP1 CALLER PUSH20 0xFFFFFFFFFFFFFFFFFFFFFFFFFFFFFFFFFFFFFFFF AND PUSH20 0xFFFFFFFFFFFFFFFFFFFFFFFFFFFFFFFFFFFFFFFF AND DUP2 MSTORE PUSH1 0x20 ADD SWAP1 DUP2 MSTORE PUSH1 0x20 ADD PUSH1 0x0 KECCAK256 PUSH1 0x0 DUP3 DUP3 SLOAD PUSH2 0x5CF SWAP2 SWAP1 PUSH2 0x6A8 JUMP JUMPDEST SWAP3 POP POP DUP2 SWAP1 SSTORE POP JUMP JUMPDEST DUP1 PUSH1 0x2 PUSH1 0x0 CALLER PUSH20 0xFFFFFFFFFFFFFFFFFFFFFFFFFFFFFFFFFFFFFFFF AND PUSH20 0xFFFFFFFFFFFFFFFFFFFFFFFFFFFFFFFFFFFFFFFF AND DUP2 MSTORE PUSH1 0x20 ADD SWAP1 DUP2 MSTORE PUSH1 0x20 ADD PUSH1 0x0 KECCAK256 PUSH1 0x0 DUP5 PUSH20 0xFFFFFFFFFFFFFFFFFFFFFFFFFFFFFFFFFFFFFFFF AND PUSH20 0xFFFFFFFFFFFFFFFFFFFFFFFFFFFFFFFFFFFFFFFF AND DUP2 MSTORE PUSH1 0x20 ADD SWAP1 DUP2 MSTORE PUSH1 0x20 ADD PUSH1 0x0 KECCAK256 PUSH1 0x0 DUP3 DUP3 SLOAD PUSH2 0x664 SWAP2 SWAP1 PUSH2 0x6A8 JUMP JUMPDEST SWAP3 POP POP DUP2 SWAP1 SSTORE POP POP POP JUMP JUMPDEST PUSH1 0x0 DUP2 SWAP1 POP SWAP2 SWAP1 POP JUMP JUMPDEST PUSH32 0x4E487B7100000000000000000000000000000000000000000000000000000000 PUSH1 0x0 MSTORE PUSH1 0x11 PUSH1 0x4 MSTORE PUSH1 0x24 PUSH1 0x0 REVERT JUMPDEST PUSH1 0x0 PUSH2 0x6B3 DUP3 PUSH2 0x66F JUMP JUMPDEST SWAP2 POP PUSH2 0x6BE DUP4 PUSH2 0x66F JUMP JUMPDEST SWAP3 POP DUP3 DUP3 ADD SWAP1 POP DUP1 DUP3 GT ISZERO PUSH2 0x6D6 JUMPI PUSH2 0x6D5 PUSH2 0x679 JUMP JUMPDEST JUMPDEST SWAP3 SWAP2 POP POP JUMP JUMPDEST PUSH1 0x0 DUP1 REVERT JUMPDEST PUSH1 0x0 PUSH20 0xFFFFFFFFFFFFFFFFFFFFFFFFFFFFFFFFFFFFFFFF DUP3 AND SWAP1 POP SWAP2 SWAP1 POP JUMP JUMPDEST PUSH1 0x0 PUSH2 0x70C DUP3 PUSH2 0x6E1 JUMP JUMPDEST SWAP1 POP SWAP2 SWAP1 POP JUMP JUMPDEST PUSH2 0x71C DUP2 PUSH2 0x701 JUMP JUMPDEST DUP2 EQ PUSH2 0x727 JUMPI PUSH1 0x0 DUP1 REVERT JUMPDEST POP JUMP JUMPDEST PUSH1 0x0 DUP2 CALLDATALOAD SWAP1 POP PUSH2 0x739 DUP2 PUSH2 0x713 JUMP JUMPDEST SWAP3 SWAP2 POP POP JUMP JUMPDEST PUSH2 0x748 DUP2 PUSH2 0x66F JUMP JUMPDEST DUP2 EQ PUSH2 0x753 JUMPI PUSH1 0x0 DUP1 REVERT JUMPDEST POP JUMP JUMPDEST PUSH1 0x0 DUP2 CALLDATALOAD SWAP1 POP PUSH2 0x765 DUP2 PUSH2 0x73F JUMP JUMPDEST SWAP3 SWAP2 POP POP JUMP JUMPDEST PUSH1 0x0 DUP1 PUSH1 0x40 DUP4 DUP6 SUB SLT ISZERO PUSH2 0x782 JUMPI PUSH2 0x781 PUSH2 0x6DC JUMP JUMPDEST JUMPDEST PUSH1 0x0 PUSH2 0x790 DUP6 DUP3 DUP7 ADD PUSH2 0x72A JUMP JUMPDEST SWAP3 POP POP PUSH1 0x20 PUSH2 0x7A1 DUP6 DUP3 DUP7 ADD PUSH2 0x756 JUMP JUMPDEST SWAP2 POP POP SWAP3 POP SWAP3 SWAP1 POP JUMP JUMPDEST PUSH1 0x0 PUSH2 0x7B6 DUP3 PUSH2 0x66F JUMP JUMPDEST SWAP2 POP PUSH2 0x7C1 DUP4 PUSH2 0x66F JUMP JUMPDEST SWAP3 POP DUP3 DUP3 SUB SWAP1 POP DUP2 DUP2 GT ISZERO PUSH2 0x7D9 JUMPI PUSH2 0x7D8 PUSH2 0x679 JUMP JUMPDEST JUMPDEST SWAP3 SWAP2 POP POP JUMP JUMPDEST PUSH1 0x0 DUP2 SWAP1 POP SWAP3 SWAP2 POP POP JUMP JUMPDEST POP JUMP JUMPDEST PUSH1 0x0 PUSH2 0x7FA PUSH1 0x0 DUP4 PUSH2 0x7DF JUMP JUMPDEST SWAP2 POP PUSH2 0x805 DUP3 PUSH2 0x7EA JUMP JUMPDEST PUSH1 0x0 DUP3 ADD SWAP1 POP SWAP2 SWAP1 POP JUMP JUMPDEST PUSH1 0x0 PUSH2 0x81B DUP3 PUSH2 0x7ED JUMP JUMPDEST SWAP2 POP DUP2 SWAP1 POP SWAP2 SWAP1 POP JUMP INVALID LOG2 PUSH5 0x6970667358 0x22 SLT KECCAK256 0xED MOD PUSH32 0x9A6BEC2808AAB944DCB1504435FC808B700C3B2C943A12394E6480767564736F PUSH13 0x63430008120033000000000000 "
				},
				"gasEstimates": {
					"creation": {
						"codeDepositCost": "427800",
						"executionCost": "461",
						"totalCost": "428261"
					},
					"external": {
						"addAllowance(address,uint256)": "infinite",
						"deposit()": "infinite",
						"transferFrom(address,uint256)": "infinite",
						"withdrawBalance()": "infinite"
					}
				},
				"methodIdentifiers": {
					"addAllowance(address,uint256)": "f3c40c4b",
					"deposit()": "d0e30db0",
					"transferFrom(address,uint256)": "01c6adc3",
					"withdrawBalance()": "5fd8c710"
				}
			},
			"storageLayout": {
				"storage": [
					{
						"astId": 5,
						"contract": "contracts/bankSafe_double.sol:Bank",
						"label": "balance",
						"offset": 0,
						"slot": "0",
						"type": "t_mapping(t_address,t_uint256)"
					},
					{
						"astId": 9,
						"contract": "contracts/bankSafe_double.sol:Bank",
						"label": "disableWithdraw",
						"offset": 0,
						"slot": "1",
						"type": "t_mapping(t_address,t_bool)"
					},
					{
						"astId": 15,
						"contract": "contracts/bankSafe_double.sol:Bank",
						"label": "allow",
						"offset": 0,
						"slot": "2",
						"type": "t_mapping(t_address,t_mapping(t_address,t_uint256))"
					}
				],
				"types": {
					"t_address": {
						"encoding": "inplace",
						"label": "address",
						"numberOfBytes": "20"
					},
					"t_bool": {
						"encoding": "inplace",
						"label": "bool",
						"numberOfBytes": "1"
					},
					"t_mapping(t_address,t_bool)": {
						"encoding": "mapping",
						"key": "t_address",
						"label": "mapping(address => bool)",
						"numberOfBytes": "32",
						"value": "t_bool"
					},
					"t_mapping(t_address,t_mapping(t_address,t_uint256))": {
						"encoding": "mapping",
						"key": "t_address",
						"label": "mapping(address => mapping(address => uint256))",
						"numberOfBytes": "32",
						"value": "t_mapping(t_address,t_uint256)"
					},
					"t_mapping(t_address,t_uint256)": {
						"encoding": "mapping",
						"key": "t_address",
						"label": "mapping(address => uint256)",
						"numberOfBytes": "32",
						"value": "t_uint256"
					},
					"t_uint256": {
						"encoding": "inplace",
						"label": "uint256",
						"numberOfBytes": "32"
					}
				}
			},
			"userdoc": {
				"kind": "user",
				"methods": {},
				"version": 1
			}
		}
	}
}