{
	"contracts/double_account.sol": {
		"bank_m": {
			"abi": [
				{
					"inputs": [
						{
							"internalType": "address",
							"name": "Alice",
							"type": "address"
						},
						{
							"internalType": "address",
							"name": "Bob",
							"type": "address"
						}
					],
					"payable": false,
					"stateMutability": "nonpayable",
					"type": "constructor"
				},
				{
					"constant": false,
					"inputs": [],
					"name": "deposit",
					"outputs": [],
					"payable": true,
					"stateMutability": "payable",
					"type": "function"
				},
				{
					"constant": false,
					"inputs": [
						{
							"internalType": "uint256",
							"name": "amount",
							"type": "uint256"
						}
					],
					"name": "withdraw",
					"outputs": [],
					"payable": true,
					"stateMutability": "payable",
					"type": "function"
				}
			],
			"devdoc": {
				"methods": {}
			},
			"evm": {
				"assembly": "    /* \"contracts/double_account.sol\":27:1587  contract bank_m {\r... */\n  mstore(0x40, 0x80)\n    /* \"contracts/double_account.sol\":1021:1276  constructor(address Alice, address Bob) public {\r... */\n  callvalue\n    /* \"--CODEGEN--\":8:17   */\n  dup1\n    /* \"--CODEGEN--\":5:7   */\n  iszero\n  tag_1\n  jumpi\n    /* \"--CODEGEN--\":30:31   */\n  0x00\n    /* \"--CODEGEN--\":27:28   */\n  dup1\n    /* \"--CODEGEN--\":20:32   */\n  revert\n    /* \"--CODEGEN--\":5:7   */\ntag_1:\n    /* \"contracts/double_account.sol\":1021:1276  constructor(address Alice, address Bob) public {\r... */\n  pop\n  mload(0x40)\n  sub(codesize, bytecodeSize)\n  dup1\n  bytecodeSize\n  dup4\n  codecopy\n  dup2\n  dup2\n  add\n  0x40\n  mstore\n    /* \"--CODEGEN--\":13:15   */\n  0x40\n    /* \"--CODEGEN--\":8:11   */\n  dup2\n    /* \"--CODEGEN--\":5:16   */\n  lt\n    /* \"--CODEGEN--\":2:4   */\n  iszero\n  tag_2\n  jumpi\n    /* \"--CODEGEN--\":29:30   */\n  0x00\n    /* \"--CODEGEN--\":26:27   */\n  dup1\n    /* \"--CODEGEN--\":19:31   */\n  revert\n    /* \"--CODEGEN--\":2:4   */\ntag_2:\n    /* \"contracts/double_account.sol\":1021:1276  constructor(address Alice, address Bob) public {\r... */\n  dup2\n  add\n  swap1\n  dup1\n  dup1\n  mload\n  swap1\n  0x20\n  add\n  swap1\n  swap3\n  swap2\n  swap1\n  dup1\n  mload\n  swap1\n  0x20\n  add\n  swap1\n  swap3\n  swap2\n  swap1\n  pop\n  pop\n  pop\n    /* \"contracts/double_account.sol\":1087:1137  User({account : Alice, balance : 0, valid : true}) */\n  mload(0x40)\n  dup1\n  0x60\n  add\n  0x40\n  mstore\n  dup1\n    /* \"contracts/double_account.sol\":1103:1108  Alice */\n  dup4\n    /* \"contracts/double_account.sol\":1087:1137  User({account : Alice, balance : 0, valid : true}) */\n  0xffffffffffffffffffffffffffffffffffffffff\n  and\n  dup2\n  mstore\n  0x20\n  add\n    /* \"contracts/double_account.sol\":1120:1121  0 */\n  0x00\n    /* \"contracts/double_account.sol\":1087:1137  User({account : Alice, balance : 0, valid : true}) */\n  dup2\n  mstore\n  0x20\n  add\n    /* \"contracts/double_account.sol\":1131:1135  true */\n  0x01\n    /* \"contracts/double_account.sol\":1087:1137  User({account : Alice, balance : 0, valid : true}) */\n  iszero\n  iszero\n  dup2\n  mstore\n  pop\n    /* \"contracts/double_account.sol\":1079:1084  alice */\n  0x01\n    /* \"contracts/double_account.sol\":1079:1137  alice = User({account : Alice, balance : 0, valid : true}) */\n  0x00\n  dup3\n  add\n  mload\n  dup2\n  0x00\n  add\n  exp(0x0100, 0x00)\n  dup2\n  sload\n  dup2\n  0xffffffffffffffffffffffffffffffffffffffff\n  mul\n  not\n  and\n  swap1\n  dup4\n  0xffffffffffffffffffffffffffffffffffffffff\n  and\n  mul\n  or\n  swap1\n  sstore\n  pop\n  0x20\n  dup3\n  add\n  mload\n  dup2\n  0x01\n  add\n  sstore\n  0x40\n  dup3\n  add\n  mload\n  dup2\n  0x02\n  add\n  exp(0x0100, 0x00)\n  dup2\n  sload\n  dup2\n  0xff\n  mul\n  not\n  and\n  swap1\n  dup4\n  iszero\n  iszero\n  mul\n  or\n  swap1\n  sstore\n  pop\n  swap1\n  pop\n  pop\n    /* \"contracts/double_account.sol\":1154:1202  User({account : Bob, balance : 0, valid : true}) */\n  mload(0x40)\n  dup1\n  0x60\n  add\n  0x40\n  mstore\n  dup1\n    /* \"contracts/double_account.sol\":1170:1173  Bob */\n  dup3\n    /* \"contracts/double_account.sol\":1154:1202  User({account : Bob, balance : 0, valid : true}) */\n  0xffffffffffffffffffffffffffffffffffffffff\n  and\n  dup2\n  mstore\n  0x20\n  add\n    /* \"contracts/double_account.sol\":1185:1186  0 */\n  0x00\n    /* \"contracts/double_account.sol\":1154:1202  User({account : Bob, balance : 0, valid : true}) */\n  dup2\n  mstore\n  0x20\n  add\n    /* \"contracts/double_account.sol\":1196:1200  true */\n  0x01\n    /* \"contracts/double_account.sol\":1154:1202  User({account : Bob, balance : 0, valid : true}) */\n  iszero\n  iszero\n  dup2\n  mstore\n  pop\n    /* \"contracts/double_account.sol\":1148:1151  bob */\n  0x04\n    /* \"contracts/double_account.sol\":1148:1202  bob = User({account : Bob, balance : 0, valid : true}) */\n  0x00\n  dup3\n  add\n  mload\n  dup2\n  0x00\n  add\n  exp(0x0100, 0x00)\n  dup2\n  sload\n  dup2\n  0xffffffffffffffffffffffffffffffffffffffff\n  mul\n  not\n  and\n  swap1\n  dup4\n  0xffffffffffffffffffffffffffffffffffffffff\n  and\n  mul\n  or\n  swap1\n  sstore\n  pop\n  0x20\n  dup3\n  add\n  mload\n  dup2\n  0x01\n  add\n  sstore\n  0x40\n  dup3\n  add\n  mload\n  dup2\n  0x02\n  add\n  exp(0x0100, 0x00)\n  dup2\n  sload\n  dup2\n  0xff\n  mul\n  not\n  and\n  swap1\n  dup4\n  iszero\n  iszero\n  mul\n  or\n  swap1\n  sstore\n  pop\n  swap1\n  pop\n  pop\n    /* \"contracts/double_account.sol\":1233:1238  alice */\n  0x01\n    /* \"contracts/double_account.sol\":1215:1223  accounts */\n  0x00\n    /* \"contracts/double_account.sol\":1215:1230  accounts[Alice] */\n  dup1\n    /* \"contracts/double_account.sol\":1224:1229  Alice */\n  dup5\n    /* \"contracts/double_account.sol\":1215:1230  accounts[Alice] */\n  0xffffffffffffffffffffffffffffffffffffffff\n  and\n  0xffffffffffffffffffffffffffffffffffffffff\n  and\n  dup2\n  mstore\n  0x20\n  add\n  swap1\n  dup2\n  mstore\n  0x20\n  add\n  0x00\n  keccak256\n    /* \"contracts/double_account.sol\":1215:1238  accounts[Alice] = alice */\n  0x00\n  dup3\n  add\n  0x00\n  swap1\n  sload\n  swap1\n  0x0100\n  exp\n  swap1\n  div\n  0xffffffffffffffffffffffffffffffffffffffff\n  and\n  dup2\n  0x00\n  add\n  exp(0x0100, 0x00)\n  dup2\n  sload\n  dup2\n  0xffffffffffffffffffffffffffffffffffffffff\n  mul\n  not\n  and\n  swap1\n  dup4\n  0xffffffffffffffffffffffffffffffffffffffff\n  and\n  mul\n  or\n  swap1\n  sstore\n  pop\n  0x01\n  dup3\n  add\n  sload\n  dup2\n  0x01\n  add\n  sstore\n  0x02\n  dup3\n  add\n  0x00\n  swap1\n  sload\n  swap1\n  0x0100\n  exp\n  swap1\n  div\n  0xff\n  and\n  dup2\n  0x02\n  add\n  exp(0x0100, 0x00)\n  dup2\n  sload\n  dup2\n  0xff\n  mul\n  not\n  and\n  swap1\n  dup4\n  iszero\n  iszero\n  mul\n  or\n  swap1\n  sstore\n  pop\n  swap1\n  pop\n  pop\n    /* \"contracts/double_account.sol\":1265:1268  bob */\n  0x04\n    /* \"contracts/double_account.sol\":1249:1257  accounts */\n  0x00\n    /* \"contracts/double_account.sol\":1249:1262  accounts[Bob] */\n  dup1\n    /* \"contracts/double_account.sol\":1258:1261  Bob */\n  dup4\n    /* \"contracts/double_account.sol\":1249:1262  accounts[Bob] */\n  0xffffffffffffffffffffffffffffffffffffffff\n  and\n  0xffffffffffffffffffffffffffffffffffffffff\n  and\n  dup2\n  mstore\n  0x20\n  add\n  swap1\n  dup2\n  mstore\n  0x20\n  add\n  0x00\n  keccak256\n    /* \"contracts/double_account.sol\":1249:1268  accounts[Bob] = bob */\n  0x00\n  dup3\n  add\n  0x00\n  swap1\n  sload\n  swap1\n  0x0100\n  exp\n  swap1\n  div\n  0xffffffffffffffffffffffffffffffffffffffff\n  and\n  dup2\n  0x00\n  add\n  exp(0x0100, 0x00)\n  dup2\n  sload\n  dup2\n  0xffffffffffffffffffffffffffffffffffffffff\n  mul\n  not\n  and\n  swap1\n  dup4\n  0xffffffffffffffffffffffffffffffffffffffff\n  and\n  mul\n  or\n  swap1\n  sstore\n  pop\n  0x01\n  dup3\n  add\n  sload\n  dup2\n  0x01\n  add\n  sstore\n  0x02\n  dup3\n  add\n  0x00\n  swap1\n  sload\n  swap1\n  0x0100\n  exp\n  swap1\n  div\n  0xff\n  and\n  dup2\n  0x02\n  add\n  exp(0x0100, 0x00)\n  dup2\n  sload\n  dup2\n  0xff\n  mul\n  not\n  and\n  swap1\n  dup4\n  iszero\n  iszero\n  mul\n  or\n  swap1\n  sstore\n  pop\n  swap1\n  pop\n  pop\n    /* \"contracts/double_account.sol\":1021:1276  constructor(address Alice, address Bob) public {\r... */\n  pop\n  pop\n    /* \"contracts/double_account.sol\":27:1587  contract bank_m {\r... */\n  dataSize(sub_0)\n  dup1\n  dataOffset(sub_0)\n  0x00\n  codecopy\n  0x00\n  return\nstop\n\nsub_0: assembly {\n        /* \"contracts/double_account.sol\":27:1587  contract bank_m {\r... */\n      mstore(0x40, 0x80)\n      jumpi(tag_1, lt(calldatasize, 0x04))\n      shr(0xe0, calldataload(0x00))\n      dup1\n      0x2e1a7d4d\n      eq\n      tag_2\n      jumpi\n      dup1\n      0xd0e30db0\n      eq\n      tag_3\n      jumpi\n    tag_1:\n      0x00\n      dup1\n      revert\n        /* \"contracts/double_account.sol\":1393:1584  function withdraw(uint amount) public payable hasAccount hasMoney(amount) {\r... */\n    tag_2:\n      tag_4\n      0x04\n      dup1\n      calldatasize\n      sub\n        /* \"--CODEGEN--\":13:15   */\n      0x20\n        /* \"--CODEGEN--\":8:11   */\n      dup2\n        /* \"--CODEGEN--\":5:16   */\n      lt\n        /* \"--CODEGEN--\":2:4   */\n      iszero\n      tag_5\n      jumpi\n        /* \"--CODEGEN--\":29:30   */\n      0x00\n        /* \"--CODEGEN--\":26:27   */\n      dup1\n        /* \"--CODEGEN--\":19:31   */\n      revert\n        /* \"--CODEGEN--\":2:4   */\n    tag_5:\n        /* \"contracts/double_account.sol\":1393:1584  function withdraw(uint amount) public payable hasAccount hasMoney(amount) {\r... */\n      dup2\n      add\n      swap1\n      dup1\n      dup1\n      calldataload\n      swap1\n      0x20\n      add\n      swap1\n      swap3\n      swap2\n      swap1\n      pop\n      pop\n      pop\n      tag_6\n      jump\t// in\n    tag_4:\n      stop\n        /* \"contracts/double_account.sol\":1282:1387  function deposit() public payable hasAccount {\r... */\n    tag_3:\n      tag_7\n      tag_8\n      jump\t// in\n    tag_7:\n      stop\n        /* \"contracts/double_account.sol\":1393:1584  function withdraw(uint amount) public payable hasAccount hasMoney(amount) {\r... */\n    tag_6:\n        /* \"contracts/double_account.sol\":321:329  accounts */\n      0x00\n        /* \"contracts/double_account.sol\":321:341  accounts[msg.sender] */\n      dup1\n        /* \"contracts/double_account.sol\":330:340  msg.sender */\n      caller\n        /* \"contracts/double_account.sol\":321:341  accounts[msg.sender] */\n      0xffffffffffffffffffffffffffffffffffffffff\n      and\n      0xffffffffffffffffffffffffffffffffffffffff\n      and\n      dup2\n      mstore\n      0x20\n      add\n      swap1\n      dup2\n      mstore\n      0x20\n      add\n      0x00\n      keccak256\n        /* \"contracts/double_account.sol\":321:347  accounts[msg.sender].valid */\n      0x02\n      add\n      0x00\n      swap1\n      sload\n      swap1\n      0x0100\n      exp\n      swap1\n      div\n      0xff\n      and\n        /* \"contracts/double_account.sol\":318:748  if(accounts[msg.sender].valid){\r... */\n      iszero\n      tag_10\n      jumpi\n        /* \"contracts/double_account.sol\":1459:1465  amount */\n      dup1\n        /* \"contracts/double_account.sol\":858:863  money */\n      dup1\n        /* \"contracts/double_account.sol\":826:834  accounts */\n      0x00\n        /* \"contracts/double_account.sol\":826:846  accounts[msg.sender] */\n      dup1\n        /* \"contracts/double_account.sol\":835:845  msg.sender */\n      caller\n        /* \"contracts/double_account.sol\":826:846  accounts[msg.sender] */\n      0xffffffffffffffffffffffffffffffffffffffff\n      and\n      0xffffffffffffffffffffffffffffffffffffffff\n      and\n      dup2\n      mstore\n      0x20\n      add\n      swap1\n      dup2\n      mstore\n      0x20\n      add\n      0x00\n      keccak256\n        /* \"contracts/double_account.sol\":826:854  accounts[msg.sender].balance */\n      0x01\n      add\n      sload\n        /* \"contracts/double_account.sol\":826:863  accounts[msg.sender].balance >= money */\n      lt\n      iszero\n        /* \"contracts/double_account.sol\":804:919  require(\r... */\n      tag_12\n      jumpi\n      mload(0x40)\n      0x08c379a000000000000000000000000000000000000000000000000000000000\n      dup2\n      mstore\n      0x04\n      add\n      dup1\n      dup1\n      0x20\n      add\n      dup3\n      dup2\n      sub\n      dup3\n      mstore\n      0x1c\n      dup2\n      mstore\n      0x20\n      add\n      dup1\n      0x596f7520646f206e6f74206861766520656e6f756768206d6f6e657900000000\n      dup2\n      mstore\n      pop\n      0x20\n      add\n      swap2\n      pop\n      pop\n      mload(0x40)\n      dup1\n      swap2\n      sub\n      swap1\n      revert\n    tag_12:\n        /* \"contracts/double_account.sol\":1478:1488  msg.sender */\n      caller\n        /* \"contracts/double_account.sol\":1478:1497  msg.sender.transfer */\n      0xffffffffffffffffffffffffffffffffffffffff\n      and\n        /* \"contracts/double_account.sol\":1478:1527  msg.sender.transfer(amount * 1000000000000000000) */\n      0x08fc\n        /* \"contracts/double_account.sol\":1507:1526  1000000000000000000 */\n      0x0de0b6b3a7640000\n        /* \"contracts/double_account.sol\":1498:1504  amount */\n      dup5\n        /* \"contracts/double_account.sol\":1498:1526  amount * 1000000000000000000 */\n      mul\n        /* \"contracts/double_account.sol\":1478:1527  msg.sender.transfer(amount * 1000000000000000000) */\n      swap1\n      dup2\n      iszero\n      mul\n      swap1\n      mload(0x40)\n      0x00\n      mload(0x40)\n      dup1\n      dup4\n      sub\n      dup2\n      dup6\n      dup9\n      dup9\n      call\n      swap4\n      pop\n      pop\n      pop\n      pop\n      iszero\n        /* \"--CODEGEN--\":8:17   */\n      dup1\n        /* \"--CODEGEN--\":5:7   */\n      iszero\n      tag_14\n      jumpi\n        /* \"--CODEGEN--\":45:61   */\n      returndatasize\n        /* \"--CODEGEN--\":42:43   */\n      0x00\n        /* \"--CODEGEN--\":39:40   */\n      dup1\n        /* \"--CODEGEN--\":24:62   */\n      returndatacopy\n        /* \"--CODEGEN--\":77:93   */\n      returndatasize\n        /* \"--CODEGEN--\":74:75   */\n      0x00\n        /* \"--CODEGEN--\":67:94   */\n      revert\n        /* \"--CODEGEN--\":5:7   */\n    tag_14:\n        /* \"contracts/double_account.sol\":1478:1527  msg.sender.transfer(amount * 1000000000000000000) */\n      pop\n        /* \"contracts/double_account.sol\":1570:1576  amount */\n      dup2\n        /* \"contracts/double_account.sol\":1538:1546  accounts */\n      0x00\n        /* \"contracts/double_account.sol\":1538:1558  accounts[msg.sender] */\n      dup1\n        /* \"contracts/double_account.sol\":1547:1557  msg.sender */\n      caller\n        /* \"contracts/double_account.sol\":1538:1558  accounts[msg.sender] */\n      0xffffffffffffffffffffffffffffffffffffffff\n      and\n      0xffffffffffffffffffffffffffffffffffffffff\n      and\n      dup2\n      mstore\n      0x20\n      add\n      swap1\n      dup2\n      mstore\n      0x20\n      add\n      0x00\n      keccak256\n        /* \"contracts/double_account.sol\":1538:1566  accounts[msg.sender].balance */\n      0x01\n      add\n      0x00\n        /* \"contracts/double_account.sol\":1538:1576  accounts[msg.sender].balance -= amount */\n      dup3\n      dup3\n      sload\n      sub\n      swap3\n      pop\n      pop\n      dup2\n      swap1\n      sstore\n      pop\n        /* \"contracts/double_account.sol\":363:364  _ */\n      pop\n        /* \"contracts/double_account.sol\":318:748  if(accounts[msg.sender].valid){\r... */\n      jump(tag_15)\n    tag_10:\n        /* \"contracts/double_account.sol\":412:413  0 */\n      0x00\n        /* \"contracts/double_account.sol\":400:409  msg.value */\n      callvalue\n        /* \"contracts/double_account.sol\":400:413  msg.value > 0 */\n      gt\n        /* \"contracts/double_account.sol\":397:629  if(msg.value > 0){\r... */\n      iszero\n      tag_16\n      jumpi\n        /* \"contracts/double_account.sol\":433:443  msg.sender */\n      caller\n        /* \"contracts/double_account.sol\":433:452  msg.sender.transfer */\n      0xffffffffffffffffffffffffffffffffffffffff\n      and\n        /* \"contracts/double_account.sol\":433:465  msg.sender.transfer(msg.value/2) */\n      0x08fc\n        /* \"contracts/double_account.sol\":463:464  2 */\n      0x02\n        /* \"contracts/double_account.sol\":453:462  msg.value */\n      callvalue\n        /* \"contracts/double_account.sol\":453:464  msg.value/2 */\n      dup2\n      tag_17\n      jumpi\n      invalid\n    tag_17:\n      div\n        /* \"contracts/double_account.sol\":433:465  msg.sender.transfer(msg.value/2) */\n      swap1\n      dup2\n      iszero\n      mul\n      swap1\n      mload(0x40)\n      0x00\n      mload(0x40)\n      dup1\n      dup4\n      sub\n      dup2\n      dup6\n      dup9\n      dup9\n      call\n      swap4\n      pop\n      pop\n      pop\n      pop\n      iszero\n        /* \"--CODEGEN--\":8:17   */\n      dup1\n        /* \"--CODEGEN--\":5:7   */\n      iszero\n      tag_18\n      jumpi\n        /* \"--CODEGEN--\":45:61   */\n      returndatasize\n        /* \"--CODEGEN--\":42:43   */\n      0x00\n        /* \"--CODEGEN--\":39:40   */\n      dup1\n        /* \"--CODEGEN--\":24:62   */\n      returndatacopy\n        /* \"--CODEGEN--\":77:93   */\n      returndatasize\n        /* \"--CODEGEN--\":74:75   */\n      0x00\n        /* \"--CODEGEN--\":67:94   */\n      revert\n        /* \"--CODEGEN--\":5:7   */\n    tag_18:\n        /* \"contracts/double_account.sol\":433:465  msg.sender.transfer(msg.value/2) */\n      pop\n        /* \"contracts/double_account.sol\":514:519  false */\n      0x00\n        /* \"contracts/double_account.sol\":484:613  require(\r... */\n      tag_19\n      jumpi\n      mload(0x40)\n      0x08c379a000000000000000000000000000000000000000000000000000000000\n      dup2\n      mstore\n      0x04\n      add\n      dup1\n      dup1\n      0x20\n      add\n      dup3\n      dup2\n      sub\n      dup3\n      mstore\n      0x32\n      dup2\n      mstore\n      0x20\n      add\n      dup1\n      data_b709ec8b7f741feee91b8be0ab19f781bc40ded887e3ebc1a6caaec69887b71b\n      0x32\n      swap2\n      codecopy\n      0x40\n      add\n      swap2\n      pop\n      pop\n      mload(0x40)\n      dup1\n      swap2\n      sub\n      swap1\n      revert\n    tag_19:\n        /* \"contracts/double_account.sol\":397:629  if(msg.value > 0){\r... */\n    tag_16:\n        /* \"contracts/double_account.sol\":669:674  false */\n      0x00\n        /* \"contracts/double_account.sol\":643:736  require(\r... */\n      tag_20\n      jumpi\n      mload(0x40)\n      0x08c379a000000000000000000000000000000000000000000000000000000000\n      dup2\n      mstore\n      0x04\n      add\n      dup1\n      dup1\n      0x20\n      add\n      dup3\n      dup2\n      sub\n      dup3\n      mstore\n      0x1a\n      dup2\n      mstore\n      0x20\n      add\n      dup1\n      0x596f7520646f206e6f74206861766520616e206163636f756e74000000000000\n      dup2\n      mstore\n      pop\n      0x20\n      add\n      swap2\n      pop\n      pop\n      mload(0x40)\n      dup1\n      swap2\n      sub\n      swap1\n      revert\n    tag_20:\n        /* \"contracts/double_account.sol\":318:748  if(accounts[msg.sender].valid){\r... */\n    tag_15:\n        /* \"contracts/double_account.sol\":1393:1584  function withdraw(uint amount) public payable hasAccount hasMoney(amount) {\r... */\n      pop\n      jump\t// out\n        /* \"contracts/double_account.sol\":1282:1387  function deposit() public payable hasAccount {\r... */\n    tag_8:\n        /* \"contracts/double_account.sol\":321:329  accounts */\n      0x00\n        /* \"contracts/double_account.sol\":321:341  accounts[msg.sender] */\n      dup1\n        /* \"contracts/double_account.sol\":330:340  msg.sender */\n      caller\n        /* \"contracts/double_account.sol\":321:341  accounts[msg.sender] */\n      0xffffffffffffffffffffffffffffffffffffffff\n      and\n      0xffffffffffffffffffffffffffffffffffffffff\n      and\n      dup2\n      mstore\n      0x20\n      add\n      swap1\n      dup2\n      mstore\n      0x20\n      add\n      0x00\n      keccak256\n        /* \"contracts/double_account.sol\":321:347  accounts[msg.sender].valid */\n      0x02\n      add\n      0x00\n      swap1\n      sload\n      swap1\n      0x0100\n      exp\n      swap1\n      div\n      0xff\n      and\n        /* \"contracts/double_account.sol\":318:748  if(accounts[msg.sender].valid){\r... */\n      iszero\n      tag_22\n      jumpi\n        /* \"contracts/double_account.sol\":1370:1379  msg.value */\n      callvalue\n        /* \"contracts/double_account.sol\":1338:1346  accounts */\n      0x00\n        /* \"contracts/double_account.sol\":1338:1358  accounts[msg.sender] */\n      dup1\n        /* \"contracts/double_account.sol\":1347:1357  msg.sender */\n      caller\n        /* \"contracts/double_account.sol\":1338:1358  accounts[msg.sender] */\n      0xffffffffffffffffffffffffffffffffffffffff\n      and\n      0xffffffffffffffffffffffffffffffffffffffff\n      and\n      dup2\n      mstore\n      0x20\n      add\n      swap1\n      dup2\n      mstore\n      0x20\n      add\n      0x00\n      keccak256\n        /* \"contracts/double_account.sol\":1338:1366  accounts[msg.sender].balance */\n      0x01\n      add\n      0x00\n        /* \"contracts/double_account.sol\":1338:1379  accounts[msg.sender].balance += msg.value */\n      dup3\n      dup3\n      sload\n      add\n      swap3\n      pop\n      pop\n      dup2\n      swap1\n      sstore\n      pop\n        /* \"contracts/double_account.sol\":318:748  if(accounts[msg.sender].valid){\r... */\n      jump(tag_24)\n    tag_22:\n        /* \"contracts/double_account.sol\":412:413  0 */\n      0x00\n        /* \"contracts/double_account.sol\":400:409  msg.value */\n      callvalue\n        /* \"contracts/double_account.sol\":400:413  msg.value > 0 */\n      gt\n        /* \"contracts/double_account.sol\":397:629  if(msg.value > 0){\r... */\n      iszero\n      tag_25\n      jumpi\n        /* \"contracts/double_account.sol\":433:443  msg.sender */\n      caller\n        /* \"contracts/double_account.sol\":433:452  msg.sender.transfer */\n      0xffffffffffffffffffffffffffffffffffffffff\n      and\n        /* \"contracts/double_account.sol\":433:465  msg.sender.transfer(msg.value/2) */\n      0x08fc\n        /* \"contracts/double_account.sol\":463:464  2 */\n      0x02\n        /* \"contracts/double_account.sol\":453:462  msg.value */\n      callvalue\n        /* \"contracts/double_account.sol\":453:464  msg.value/2 */\n      dup2\n      tag_26\n      jumpi\n      invalid\n    tag_26:\n      div\n        /* \"contracts/double_account.sol\":433:465  msg.sender.transfer(msg.value/2) */\n      swap1\n      dup2\n      iszero\n      mul\n      swap1\n      mload(0x40)\n      0x00\n      mload(0x40)\n      dup1\n      dup4\n      sub\n      dup2\n      dup6\n      dup9\n      dup9\n      call\n      swap4\n      pop\n      pop\n      pop\n      pop\n      iszero\n        /* \"--CODEGEN--\":8:17   */\n      dup1\n        /* \"--CODEGEN--\":5:7   */\n      iszero\n      tag_27\n      jumpi\n        /* \"--CODEGEN--\":45:61   */\n      returndatasize\n        /* \"--CODEGEN--\":42:43   */\n      0x00\n        /* \"--CODEGEN--\":39:40   */\n      dup1\n        /* \"--CODEGEN--\":24:62   */\n      returndatacopy\n        /* \"--CODEGEN--\":77:93   */\n      returndatasize\n        /* \"--CODEGEN--\":74:75   */\n      0x00\n        /* \"--CODEGEN--\":67:94   */\n      revert\n        /* \"--CODEGEN--\":5:7   */\n    tag_27:\n        /* \"contracts/double_account.sol\":433:465  msg.sender.transfer(msg.value/2) */\n      pop\n        /* \"contracts/double_account.sol\":514:519  false */\n      0x00\n        /* \"contracts/double_account.sol\":484:613  require(\r... */\n      tag_28\n      jumpi\n      mload(0x40)\n      0x08c379a000000000000000000000000000000000000000000000000000000000\n      dup2\n      mstore\n      0x04\n      add\n      dup1\n      dup1\n      0x20\n      add\n      dup3\n      dup2\n      sub\n      dup3\n      mstore\n      0x32\n      dup2\n      mstore\n      0x20\n      add\n      dup1\n      data_b709ec8b7f741feee91b8be0ab19f781bc40ded887e3ebc1a6caaec69887b71b\n      0x32\n      swap2\n      codecopy\n      0x40\n      add\n      swap2\n      pop\n      pop\n      mload(0x40)\n      dup1\n      swap2\n      sub\n      swap1\n      revert\n    tag_28:\n        /* \"contracts/double_account.sol\":397:629  if(msg.value > 0){\r... */\n    tag_25:\n        /* \"contracts/double_account.sol\":669:674  false */\n      0x00\n        /* \"contracts/double_account.sol\":643:736  require(\r... */\n      tag_29\n      jumpi\n      mload(0x40)\n      0x08c379a000000000000000000000000000000000000000000000000000000000\n      dup2\n      mstore\n      0x04\n      add\n      dup1\n      dup1\n      0x20\n      add\n      dup3\n      dup2\n      sub\n      dup3\n      mstore\n      0x1a\n      dup2\n      mstore\n      0x20\n      add\n      dup1\n      0x596f7520646f206e6f74206861766520616e206163636f756e74000000000000\n      dup2\n      mstore\n      pop\n      0x20\n      add\n      swap2\n      pop\n      pop\n      mload(0x40)\n      dup1\n      swap2\n      sub\n      swap1\n      revert\n    tag_29:\n        /* \"contracts/double_account.sol\":318:748  if(accounts[msg.sender].valid){\r... */\n    tag_24:\n        /* \"contracts/double_account.sol\":1282:1387  function deposit() public payable hasAccount {\r... */\n      jump\t// out\n    stop\n    data_b709ec8b7f741feee91b8be0ab19f781bc40ded887e3ebc1a6caaec69887b71b 596f7520646f206e6f74206861766520616e206163636f756e742e2054616b696e672068616c6620796f7572206d6f6e6579\n\n    auxdata: 0xa265627a7a723158209238a33cc15e34cebc5c7a723e04ef4190fb4afa63866efbe17a6315b2af08d664736f6c634300050d0032\n}\n",
				"bytecode": {
					"linkReferences": {},
					"object": "608060405234801561001057600080fd5b506040516108f13803806108f18339818101604052604081101561003357600080fd5b81019080805190602001909291908051906020019092919050505060405180606001604052808373ffffffffffffffffffffffffffffffffffffffff1681526020016000815260200160011515815250600160008201518160000160006101000a81548173ffffffffffffffffffffffffffffffffffffffff021916908373ffffffffffffffffffffffffffffffffffffffff1602179055506020820151816001015560408201518160020160006101000a81548160ff02191690831515021790555090505060405180606001604052808273ffffffffffffffffffffffffffffffffffffffff1681526020016000815260200160011515815250600460008201518160000160006101000a81548173ffffffffffffffffffffffffffffffffffffffff021916908373ffffffffffffffffffffffffffffffffffffffff1602179055506020820151816001015560408201518160020160006101000a81548160ff02191690831515021790555090505060016000808473ffffffffffffffffffffffffffffffffffffffff1673ffffffffffffffffffffffffffffffffffffffff1681526020019081526020016000206000820160009054906101000a900473ffffffffffffffffffffffffffffffffffffffff168160000160006101000a81548173ffffffffffffffffffffffffffffffffffffffff021916908373ffffffffffffffffffffffffffffffffffffffff160217905550600182015481600101556002820160009054906101000a900460ff168160020160006101000a81548160ff02191690831515021790555090505060046000808373ffffffffffffffffffffffffffffffffffffffff1673ffffffffffffffffffffffffffffffffffffffff1681526020019081526020016000206000820160009054906101000a900473ffffffffffffffffffffffffffffffffffffffff168160000160006101000a81548173ffffffffffffffffffffffffffffffffffffffff021916908373ffffffffffffffffffffffffffffffffffffffff160217905550600182015481600101556002820160009054906101000a900460ff168160020160006101000a81548160ff021916908315150217905550905050505061057a806103776000396000f3fe6080604052600436106100295760003560e01c80632e1a7d4d1461002e578063d0e30db01461005c575b600080fd5b61005a6004803603602081101561004457600080fd5b8101908080359060200190929190505050610066565b005b610064610342565b005b6000803373ffffffffffffffffffffffffffffffffffffffff1673ffffffffffffffffffffffffffffffffffffffff16815260200190815260200160002060020160009054906101000a900460ff16156102185780806000803373ffffffffffffffffffffffffffffffffffffffff1673ffffffffffffffffffffffffffffffffffffffff168152602001908152602001600020600101541015610172576040517f08c379a000000000000000000000000000000000000000000000000000000000815260040180806020018281038252601c8152602001807f596f7520646f206e6f74206861766520656e6f756768206d6f6e65790000000081525060200191505060405180910390fd5b3373ffffffffffffffffffffffffffffffffffffffff166108fc670de0b6b3a764000084029081150290604051600060405180830381858888f193505050501580156101c2573d6000803e3d6000fd5b50816000803373ffffffffffffffffffffffffffffffffffffffff1673ffffffffffffffffffffffffffffffffffffffff168152602001908152602001600020600101600082825403925050819055505061033f565b60003411156102ca573373ffffffffffffffffffffffffffffffffffffffff166108fc6002348161024557fe5b049081150290604051600060405180830381858888f19350505050158015610271573d6000803e3d6000fd5b5060006102c9576040517f08c379a00000000000000000000000000000000000000000000000000000000081526004018080602001828103825260328152602001806105146032913960400191505060405180910390fd5b5b600061033e576040517f08c379a000000000000000000000000000000000000000000000000000000000815260040180806020018281038252601a8152602001807f596f7520646f206e6f74206861766520616e206163636f756e7400000000000081525060200191505060405180910390fd5b5b50565b6000803373ffffffffffffffffffffffffffffffffffffffff1673ffffffffffffffffffffffffffffffffffffffff16815260200190815260200160002060020160009054906101000a900460ff16156103ea57346000803373ffffffffffffffffffffffffffffffffffffffff1673ffffffffffffffffffffffffffffffffffffffff16815260200190815260200160002060010160008282540192505081905550610511565b600034111561049c573373ffffffffffffffffffffffffffffffffffffffff166108fc6002348161041757fe5b049081150290604051600060405180830381858888f19350505050158015610443573d6000803e3d6000fd5b50600061049b576040517f08c379a00000000000000000000000000000000000000000000000000000000081526004018080602001828103825260328152602001806105146032913960400191505060405180910390fd5b5b6000610510576040517f08c379a000000000000000000000000000000000000000000000000000000000815260040180806020018281038252601a8152602001807f596f7520646f206e6f74206861766520616e206163636f756e7400000000000081525060200191505060405180910390fd5b5b56fe596f7520646f206e6f74206861766520616e206163636f756e742e2054616b696e672068616c6620796f7572206d6f6e6579a265627a7a723158209238a33cc15e34cebc5c7a723e04ef4190fb4afa63866efbe17a6315b2af08d664736f6c634300050d0032",
					"opcodes": "PUSH1 0x80 PUSH1 0x40 MSTORE CALLVALUE DUP1 ISZERO PUSH2 0x10 JUMPI PUSH1 0x0 DUP1 REVERT JUMPDEST POP PUSH1 0x40 MLOAD PUSH2 0x8F1 CODESIZE SUB DUP1 PUSH2 0x8F1 DUP4 CODECOPY DUP2 DUP2 ADD PUSH1 0x40 MSTORE PUSH1 0x40 DUP2 LT ISZERO PUSH2 0x33 JUMPI PUSH1 0x0 DUP1 REVERT JUMPDEST DUP2 ADD SWAP1 DUP1 DUP1 MLOAD SWAP1 PUSH1 0x20 ADD SWAP1 SWAP3 SWAP2 SWAP1 DUP1 MLOAD SWAP1 PUSH1 0x20 ADD SWAP1 SWAP3 SWAP2 SWAP1 POP POP POP PUSH1 0x40 MLOAD DUP1 PUSH1 0x60 ADD PUSH1 0x40 MSTORE DUP1 DUP4 PUSH20 0xFFFFFFFFFFFFFFFFFFFFFFFFFFFFFFFFFFFFFFFF AND DUP2 MSTORE PUSH1 0x20 ADD PUSH1 0x0 DUP2 MSTORE PUSH1 0x20 ADD PUSH1 0x1 ISZERO ISZERO DUP2 MSTORE POP PUSH1 0x1 PUSH1 0x0 DUP3 ADD MLOAD DUP2 PUSH1 0x0 ADD PUSH1 0x0 PUSH2 0x100 EXP DUP2 SLOAD DUP2 PUSH20 0xFFFFFFFFFFFFFFFFFFFFFFFFFFFFFFFFFFFFFFFF MUL NOT AND SWAP1 DUP4 PUSH20 0xFFFFFFFFFFFFFFFFFFFFFFFFFFFFFFFFFFFFFFFF AND MUL OR SWAP1 SSTORE POP PUSH1 0x20 DUP3 ADD MLOAD DUP2 PUSH1 0x1 ADD SSTORE PUSH1 0x40 DUP3 ADD MLOAD DUP2 PUSH1 0x2 ADD PUSH1 0x0 PUSH2 0x100 EXP DUP2 SLOAD DUP2 PUSH1 0xFF MUL NOT AND SWAP1 DUP4 ISZERO ISZERO MUL OR SWAP1 SSTORE POP SWAP1 POP POP PUSH1 0x40 MLOAD DUP1 PUSH1 0x60 ADD PUSH1 0x40 MSTORE DUP1 DUP3 PUSH20 0xFFFFFFFFFFFFFFFFFFFFFFFFFFFFFFFFFFFFFFFF AND DUP2 MSTORE PUSH1 0x20 ADD PUSH1 0x0 DUP2 MSTORE PUSH1 0x20 ADD PUSH1 0x1 ISZERO ISZERO DUP2 MSTORE POP PUSH1 0x4 PUSH1 0x0 DUP3 ADD MLOAD DUP2 PUSH1 0x0 ADD PUSH1 0x0 PUSH2 0x100 EXP DUP2 SLOAD DUP2 PUSH20 0xFFFFFFFFFFFFFFFFFFFFFFFFFFFFFFFFFFFFFFFF MUL NOT AND SWAP1 DUP4 PUSH20 0xFFFFFFFFFFFFFFFFFFFFFFFFFFFFFFFFFFFFFFFF AND MUL OR SWAP1 SSTORE POP PUSH1 0x20 DUP3 ADD MLOAD DUP2 PUSH1 0x1 ADD SSTORE PUSH1 0x40 DUP3 ADD MLOAD DUP2 PUSH1 0x2 ADD PUSH1 0x0 PUSH2 0x100 EXP DUP2 SLOAD DUP2 PUSH1 0xFF MUL NOT AND SWAP1 DUP4 ISZERO ISZERO MUL OR SWAP1 SSTORE POP SWAP1 POP POP PUSH1 0x1 PUSH1 0x0 DUP1 DUP5 PUSH20 0xFFFFFFFFFFFFFFFFFFFFFFFFFFFFFFFFFFFFFFFF AND PUSH20 0xFFFFFFFFFFFFFFFFFFFFFFFFFFFFFFFFFFFFFFFF AND DUP2 MSTORE PUSH1 0x20 ADD SWAP1 DUP2 MSTORE PUSH1 0x20 ADD PUSH1 0x0 KECCAK256 PUSH1 0x0 DUP3 ADD PUSH1 0x0 SWAP1 SLOAD SWAP1 PUSH2 0x100 EXP SWAP1 DIV PUSH20 0xFFFFFFFFFFFFFFFFFFFFFFFFFFFFFFFFFFFFFFFF AND DUP2 PUSH1 0x0 ADD PUSH1 0x0 PUSH2 0x100 EXP DUP2 SLOAD DUP2 PUSH20 0xFFFFFFFFFFFFFFFFFFFFFFFFFFFFFFFFFFFFFFFF MUL NOT AND SWAP1 DUP4 PUSH20 0xFFFFFFFFFFFFFFFFFFFFFFFFFFFFFFFFFFFFFFFF AND MUL OR SWAP1 SSTORE POP PUSH1 0x1 DUP3 ADD SLOAD DUP2 PUSH1 0x1 ADD SSTORE PUSH1 0x2 DUP3 ADD PUSH1 0x0 SWAP1 SLOAD SWAP1 PUSH2 0x100 EXP SWAP1 DIV PUSH1 0xFF AND DUP2 PUSH1 0x2 ADD PUSH1 0x0 PUSH2 0x100 EXP DUP2 SLOAD DUP2 PUSH1 0xFF MUL NOT AND SWAP1 DUP4 ISZERO ISZERO MUL OR SWAP1 SSTORE POP SWAP1 POP POP PUSH1 0x4 PUSH1 0x0 DUP1 DUP4 PUSH20 0xFFFFFFFFFFFFFFFFFFFFFFFFFFFFFFFFFFFFFFFF AND PUSH20 0xFFFFFFFFFFFFFFFFFFFFFFFFFFFFFFFFFFFFFFFF AND DUP2 MSTORE PUSH1 0x20 ADD SWAP1 DUP2 MSTORE PUSH1 0x20 ADD PUSH1 0x0 KECCAK256 PUSH1 0x0 DUP3 ADD PUSH1 0x0 SWAP1 SLOAD SWAP1 PUSH2 0x100 EXP SWAP1 DIV PUSH20 0xFFFFFFFFFFFFFFFFFFFFFFFFFFFFFFFFFFFFFFFF AND DUP2 PUSH1 0x0 ADD PUSH1 0x0 PUSH2 0x100 EXP DUP2 SLOAD DUP2 PUSH20 0xFFFFFFFFFFFFFFFFFFFFFFFFFFFFFFFFFFFFFFFF MUL NOT AND SWAP1 DUP4 PUSH20 0xFFFFFFFFFFFFFFFFFFFFFFFFFFFFFFFFFFFFFFFF AND MUL OR SWAP1 SSTORE POP PUSH1 0x1 DUP3 ADD SLOAD DUP2 PUSH1 0x1 ADD SSTORE PUSH1 0x2 DUP3 ADD PUSH1 0x0 SWAP1 SLOAD SWAP1 PUSH2 0x100 EXP SWAP1 DIV PUSH1 0xFF AND DUP2 PUSH1 0x2 ADD PUSH1 0x0 PUSH2 0x100 EXP DUP2 SLOAD DUP2 PUSH1 0xFF MUL NOT AND SWAP1 DUP4 ISZERO ISZERO MUL OR SWAP1 SSTORE POP SWAP1 POP POP POP POP PUSH2 0x57A DUP1 PUSH2 0x377 PUSH1 0x0 CODECOPY PUSH1 0x0 RETURN INVALID PUSH1 0x80 PUSH1 0x40 MSTORE PUSH1 0x4 CALLDATASIZE LT PUSH2 0x29 JUMPI PUSH1 0x0 CALLDATALOAD PUSH1 0xE0 SHR DUP1 PUSH4 0x2E1A7D4D EQ PUSH2 0x2E JUMPI DUP1 PUSH4 0xD0E30DB0 EQ PUSH2 0x5C JUMPI JUMPDEST PUSH1 0x0 DUP1 REVERT JUMPDEST PUSH2 0x5A PUSH1 0x4 DUP1 CALLDATASIZE SUB PUSH1 0x20 DUP2 LT ISZERO PUSH2 0x44 JUMPI PUSH1 0x0 DUP1 REVERT JUMPDEST DUP2 ADD SWAP1 DUP1 DUP1 CALLDATALOAD SWAP1 PUSH1 0x20 ADD SWAP1 SWAP3 SWAP2 SWAP1 POP POP POP PUSH2 0x66 JUMP JUMPDEST STOP JUMPDEST PUSH2 0x64 PUSH2 0x342 JUMP JUMPDEST STOP JUMPDEST PUSH1 0x0 DUP1 CALLER PUSH20 0xFFFFFFFFFFFFFFFFFFFFFFFFFFFFFFFFFFFFFFFF AND PUSH20 0xFFFFFFFFFFFFFFFFFFFFFFFFFFFFFFFFFFFFFFFF AND DUP2 MSTORE PUSH1 0x20 ADD SWAP1 DUP2 MSTORE PUSH1 0x20 ADD PUSH1 0x0 KECCAK256 PUSH1 0x2 ADD PUSH1 0x0 SWAP1 SLOAD SWAP1 PUSH2 0x100 EXP SWAP1 DIV PUSH1 0xFF AND ISZERO PUSH2 0x218 JUMPI DUP1 DUP1 PUSH1 0x0 DUP1 CALLER PUSH20 0xFFFFFFFFFFFFFFFFFFFFFFFFFFFFFFFFFFFFFFFF AND PUSH20 0xFFFFFFFFFFFFFFFFFFFFFFFFFFFFFFFFFFFFFFFF AND DUP2 MSTORE PUSH1 0x20 ADD SWAP1 DUP2 MSTORE PUSH1 0x20 ADD PUSH1 0x0 KECCAK256 PUSH1 0x1 ADD SLOAD LT ISZERO PUSH2 0x172 JUMPI PUSH1 0x40 MLOAD PUSH32 0x8C379A000000000000000000000000000000000000000000000000000000000 DUP2 MSTORE PUSH1 0x4 ADD DUP1 DUP1 PUSH1 0x20 ADD DUP3 DUP2 SUB DUP3 MSTORE PUSH1 0x1C DUP2 MSTORE PUSH1 0x20 ADD DUP1 PUSH32 0x596F7520646F206E6F74206861766520656E6F756768206D6F6E657900000000 DUP2 MSTORE POP PUSH1 0x20 ADD SWAP2 POP POP PUSH1 0x40 MLOAD DUP1 SWAP2 SUB SWAP1 REVERT JUMPDEST CALLER PUSH20 0xFFFFFFFFFFFFFFFFFFFFFFFFFFFFFFFFFFFFFFFF AND PUSH2 0x8FC PUSH8 0xDE0B6B3A7640000 DUP5 MUL SWAP1 DUP2 ISZERO MUL SWAP1 PUSH1 0x40 MLOAD PUSH1 0x0 PUSH1 0x40 MLOAD DUP1 DUP4 SUB DUP2 DUP6 DUP9 DUP9 CALL SWAP4 POP POP POP POP ISZERO DUP1 ISZERO PUSH2 0x1C2 JUMPI RETURNDATASIZE PUSH1 0x0 DUP1 RETURNDATACOPY RETURNDATASIZE PUSH1 0x0 REVERT JUMPDEST POP DUP2 PUSH1 0x0 DUP1 CALLER PUSH20 0xFFFFFFFFFFFFFFFFFFFFFFFFFFFFFFFFFFFFFFFF AND PUSH20 0xFFFFFFFFFFFFFFFFFFFFFFFFFFFFFFFFFFFFFFFF AND DUP2 MSTORE PUSH1 0x20 ADD SWAP1 DUP2 MSTORE PUSH1 0x20 ADD PUSH1 0x0 KECCAK256 PUSH1 0x1 ADD PUSH1 0x0 DUP3 DUP3 SLOAD SUB SWAP3 POP POP DUP2 SWAP1 SSTORE POP POP PUSH2 0x33F JUMP JUMPDEST PUSH1 0x0 CALLVALUE GT ISZERO PUSH2 0x2CA JUMPI CALLER PUSH20 0xFFFFFFFFFFFFFFFFFFFFFFFFFFFFFFFFFFFFFFFF AND PUSH2 0x8FC PUSH1 0x2 CALLVALUE DUP2 PUSH2 0x245 JUMPI INVALID JUMPDEST DIV SWAP1 DUP2 ISZERO MUL SWAP1 PUSH1 0x40 MLOAD PUSH1 0x0 PUSH1 0x40 MLOAD DUP1 DUP4 SUB DUP2 DUP6 DUP9 DUP9 CALL SWAP4 POP POP POP POP ISZERO DUP1 ISZERO PUSH2 0x271 JUMPI RETURNDATASIZE PUSH1 0x0 DUP1 RETURNDATACOPY RETURNDATASIZE PUSH1 0x0 REVERT JUMPDEST POP PUSH1 0x0 PUSH2 0x2C9 JUMPI PUSH1 0x40 MLOAD PUSH32 0x8C379A000000000000000000000000000000000000000000000000000000000 DUP2 MSTORE PUSH1 0x4 ADD DUP1 DUP1 PUSH1 0x20 ADD DUP3 DUP2 SUB DUP3 MSTORE PUSH1 0x32 DUP2 MSTORE PUSH1 0x20 ADD DUP1 PUSH2 0x514 PUSH1 0x32 SWAP2 CODECOPY PUSH1 0x40 ADD SWAP2 POP POP PUSH1 0x40 MLOAD DUP1 SWAP2 SUB SWAP1 REVERT JUMPDEST JUMPDEST PUSH1 0x0 PUSH2 0x33E JUMPI PUSH1 0x40 MLOAD PUSH32 0x8C379A000000000000000000000000000000000000000000000000000000000 DUP2 MSTORE PUSH1 0x4 ADD DUP1 DUP1 PUSH1 0x20 ADD DUP3 DUP2 SUB DUP3 MSTORE PUSH1 0x1A DUP2 MSTORE PUSH1 0x20 ADD DUP1 PUSH32 0x596F7520646F206E6F74206861766520616E206163636F756E74000000000000 DUP2 MSTORE POP PUSH1 0x20 ADD SWAP2 POP POP PUSH1 0x40 MLOAD DUP1 SWAP2 SUB SWAP1 REVERT JUMPDEST JUMPDEST POP JUMP JUMPDEST PUSH1 0x0 DUP1 CALLER PUSH20 0xFFFFFFFFFFFFFFFFFFFFFFFFFFFFFFFFFFFFFFFF AND PUSH20 0xFFFFFFFFFFFFFFFFFFFFFFFFFFFFFFFFFFFFFFFF AND DUP2 MSTORE PUSH1 0x20 ADD SWAP1 DUP2 MSTORE PUSH1 0x20 ADD PUSH1 0x0 KECCAK256 PUSH1 0x2 ADD PUSH1 0x0 SWAP1 SLOAD SWAP1 PUSH2 0x100 EXP SWAP1 DIV PUSH1 0xFF AND ISZERO PUSH2 0x3EA JUMPI CALLVALUE PUSH1 0x0 DUP1 CALLER PUSH20 0xFFFFFFFFFFFFFFFFFFFFFFFFFFFFFFFFFFFFFFFF AND PUSH20 0xFFFFFFFFFFFFFFFFFFFFFFFFFFFFFFFFFFFFFFFF AND DUP2 MSTORE PUSH1 0x20 ADD SWAP1 DUP2 MSTORE PUSH1 0x20 ADD PUSH1 0x0 KECCAK256 PUSH1 0x1 ADD PUSH1 0x0 DUP3 DUP3 SLOAD ADD SWAP3 POP POP DUP2 SWAP1 SSTORE POP PUSH2 0x511 JUMP JUMPDEST PUSH1 0x0 CALLVALUE GT ISZERO PUSH2 0x49C JUMPI CALLER PUSH20 0xFFFFFFFFFFFFFFFFFFFFFFFFFFFFFFFFFFFFFFFF AND PUSH2 0x8FC PUSH1 0x2 CALLVALUE DUP2 PUSH2 0x417 JUMPI INVALID JUMPDEST DIV SWAP1 DUP2 ISZERO MUL SWAP1 PUSH1 0x40 MLOAD PUSH1 0x0 PUSH1 0x40 MLOAD DUP1 DUP4 SUB DUP2 DUP6 DUP9 DUP9 CALL SWAP4 POP POP POP POP ISZERO DUP1 ISZERO PUSH2 0x443 JUMPI RETURNDATASIZE PUSH1 0x0 DUP1 RETURNDATACOPY RETURNDATASIZE PUSH1 0x0 REVERT JUMPDEST POP PUSH1 0x0 PUSH2 0x49B JUMPI PUSH1 0x40 MLOAD PUSH32 0x8C379A000000000000000000000000000000000000000000000000000000000 DUP2 MSTORE PUSH1 0x4 ADD DUP1 DUP1 PUSH1 0x20 ADD DUP3 DUP2 SUB DUP3 MSTORE PUSH1 0x32 DUP2 MSTORE PUSH1 0x20 ADD DUP1 PUSH2 0x514 PUSH1 0x32 SWAP2 CODECOPY PUSH1 0x40 ADD SWAP2 POP POP PUSH1 0x40 MLOAD DUP1 SWAP2 SUB SWAP1 REVERT JUMPDEST JUMPDEST PUSH1 0x0 PUSH2 0x510 JUMPI PUSH1 0x40 MLOAD PUSH32 0x8C379A000000000000000000000000000000000000000000000000000000000 DUP2 MSTORE PUSH1 0x4 ADD DUP1 DUP1 PUSH1 0x20 ADD DUP3 DUP2 SUB DUP3 MSTORE PUSH1 0x1A DUP2 MSTORE PUSH1 0x20 ADD DUP1 PUSH32 0x596F7520646F206E6F74206861766520616E206163636F756E74000000000000 DUP2 MSTORE POP PUSH1 0x20 ADD SWAP2 POP POP PUSH1 0x40 MLOAD DUP1 SWAP2 SUB SWAP1 REVERT JUMPDEST JUMPDEST JUMP INVALID MSIZE PUSH16 0x7520646F206E6F74206861766520616E KECCAK256 PUSH2 0x6363 PUSH16 0x756E742E2054616B696E672068616C66 KECCAK256 PUSH26 0x6F7572206D6F6E6579A265627A7A723158209238A33CC15E34CE 0xBC 0x5C PUSH27 0x723E04EF4190FB4AFA63866EFBE17A6315B2AF08D664736F6C6343 STOP SDIV 0xD STOP ORIGIN "
				},
				"gasEstimates": {
					"creation": {
						"codeDepositCost": "280400",
						"executionCost": "infinite",
						"totalCost": "infinite"
					},
					"external": {
						"deposit()": "infinite",
						"withdraw(uint256)": "infinite"
					}
				},
				"methodIdentifiers": {
					"deposit()": "d0e30db0",
					"withdraw(uint256)": "2e1a7d4d"
				}
			},
			"storageLayout": {
				"storage": [
					{
						"astId": 68,
						"contract": "contracts/double_account.sol:bank_m",
						"label": "accounts",
						"offset": 0,
						"slot": "0",
						"type": "t_mapping(t_address,t_struct(User)8_storage)"
					},
					{
						"astId": 70,
						"contract": "contracts/double_account.sol:bank_m",
						"label": "alice",
						"offset": 0,
						"slot": "1",
						"type": "t_struct(User)8_storage"
					},
					{
						"astId": 72,
						"contract": "contracts/double_account.sol:bank_m",
						"label": "bob",
						"offset": 0,
						"slot": "4",
						"type": "t_struct(User)8_storage"
					}
				],
				"types": {
					"t_address": {
						"encoding": "inplace",
						"label": "address",
						"numberOfBytes": "20"
					},
					"t_bool": {
						"encoding": "inplace",
						"label": "bool",
						"numberOfBytes": "1"
					},
					"t_mapping(t_address,t_struct(User)8_storage)": {
						"encoding": "mapping",
						"key": "t_address",
						"label": "mapping(address => struct bank_m.User)",
						"numberOfBytes": "32",
						"value": "t_struct(User)8_storage"
					},
					"t_struct(User)8_storage": {
						"encoding": "inplace",
						"label": "struct bank_m.User",
						"members": [
							{
								"astId": 3,
								"contract": "contracts/double_account.sol:bank_m",
								"label": "account",
								"offset": 0,
								"slot": "0",
								"type": "t_address"
							},
							{
								"astId": 5,
								"contract": "contracts/double_account.sol:bank_m",
								"label": "balance",
								"offset": 0,
								"slot": "1",
								"type": "t_uint256"
							},
							{
								"astId": 7,
								"contract": "contracts/double_account.sol:bank_m",
								"label": "valid",
								"offset": 0,
								"slot": "2",
								"type": "t_bool"
							}
						],
						"numberOfBytes": "96"
					},
					"t_uint256": {
						"encoding": "inplace",
						"label": "uint256",
						"numberOfBytes": "32"
					}
				}
			},
			"userdoc": {
				"methods": {}
			}
		}
	}
}